###############################################################################
#
# IAR C/C++ Compiler V10.30.1.6000 for 8051               23/Aug/2019  12:10:29
# Copyright 2004-2018 IAR Systems AB.
# PC-locked license - IAR Embedded Workbench for 8051
#
#    Core               =  plain
#    Code model         =  banked
#    Data model         =  large
#    Calling convention =  xdata reentrant
#    Constant location  =  data_rom
#    Dptr setup         =  1,16
#                          
#    Source file        =  
#        E:\qq下载文件\ZStack-CC2530-r200\ZStack-CC2530-r200\Components\stack\zdo\ZDApp.c
#    Command line       =  
#        -f C:\Users\VULCAN\AppData\Local\Temp\EW6AB2.tmp
#        (E:\qq下载文件\ZStack-CC2530-r200\ZStack-CC2530-r200\Components\stack\zdo\ZDApp.c
#        -D ZIGBEEPRO -D ZTOOL_P1 -D MT_TASK -D MT_SYS_FUNC -D MT_ZDO_FUNC -D
#        SAPP_ZSTACK -lC
#        E:\qq下载文件\ZStack-CC2530-r200\ZStack-CC2530-r200\Projects\SappWsn\CoordinatorEB\List
#        -lA
#        E:\qq下载文件\ZStack-CC2530-r200\ZStack-CC2530-r200\Projects\SappWsn\CoordinatorEB\List
#        --diag_suppress Pe001,Pa010 -o
#        E:\qq下载文件\ZStack-CC2530-r200\ZStack-CC2530-r200\Projects\SappWsn\CoordinatorEB\Obj
#        -e --debug --core=plain --dptr=16,1 --data_model=large
#        --code_model=banked --calling_convention=xdata_reentrant
#        --place_constants=data_rom --nr_virtual_regs 8 -f
#        E:\qq下载文件\ZStack-CC2530-r200\ZStack-CC2530-r200\Projects\SappWsn\..\zstack\Tools\CC2530DB\f8wCoord.cfg
#        (-DCPU32MHZ -DROOT=__near_func -DMAC_CFG_APP_PENDING_QUEUE=TRUE
#        -DMAC_CFG_TX_DATA_MAX=5 -DMAC_CFG_TX_MAX=8 -DMAC_CFG_RX_MAX=5
#        -DZDO_COORDINATOR -DRTR_NWK) -f
#        E:\qq下载文件\ZStack-CC2530-r200\ZStack-CC2530-r200\Projects\SappWsn\..\zstack\Tools\CC2530DB\f8wConfig.cfg
#        (-DZIGBEEPRO -DSECURE=0 -DZG_SECURE_DYNAMIC=0 -DREFLECTOR
#        -DDEFAULT_CHANLIST=0x00800000 -DZDAPP_CONFIG_PAN_ID=0x0057
#        -DNWK_START_DELAY=100 -DEXTENDED_JOINING_RANDOM_MASK=0x007F
#        -DBEACON_REQUEST_DELAY=100 -DBEACON_REQ_DELAY_MASK=0x00FF
#        -DLINK_STATUS_JITTER_MASK=0x007F -DROUTE_EXPIRY_TIME=30
#        -DAPSC_ACK_WAIT_DURATION_POLLED=3000 -DNWK_INDIRECT_MSG_TIMEOUT=7
#        -DMAX_RREQ_ENTRIES=8 -DAPSC_MAX_FRAME_RETRIES=3
#        -DNWK_MAX_DATA_RETRIES=2 -DMAX_POLL_FAILURE_RETRIES=2 -DMAX_BCAST=9
#        -DAPS_MAX_GROUPS=16 -DMAX_RTG_ENTRIES=40 -DNWK_MAX_BINDING_ENTRIES=4
#        -DMAX_BINDING_CLUSTER_IDS=4 "-DDEFAULT_KEY={0x01, 0x03, 0x05, 0x07,
#        0x09, 0x0B, 0x0D, 0x0F, 0x00, 0x02, 0x04, 0x06, 0x08, 0x0A, 0x0C,
#        0x0D}" -DMAC_MAX_FRAME_SIZE=116 -DZDNWKMGR_MIN_TRANSMISSIONS=20
#        "-DCONST=const __code" -DGENERIC=__generic -DRFD_RCVC_ALWAYS_ON=FALSE
#        -DPOLL_RATE=1000 -DQUEUED_POLL_RATE=100 -DRESPONSE_POLL_RATE=100
#        -DREJOIN_POLL_RATE=440) -I
#        E:\qq下载文件\ZStack-CC2530-r200\ZStack-CC2530-r200\Projects\SappWsn\
#        -I
#        E:\qq下载文件\ZStack-CC2530-r200\ZStack-CC2530-r200\Projects\SappWsn\Source\
#        -I
#        E:\qq下载文件\ZStack-CC2530-r200\ZStack-CC2530-r200\Projects\SappWsn\..\zstack\ZMain\TI2530DB\
#        -I
#        E:\qq下载文件\ZStack-CC2530-r200\ZStack-CC2530-r200\Projects\SappWsn\..\..\Components\hal\include\
#        -I
#        E:\qq下载文件\ZStack-CC2530-r200\ZStack-CC2530-r200\Projects\SappWsn\..\..\Components\hal\target\CC2530EB\
#        -I
#        E:\qq下载文件\ZStack-CC2530-r200\ZStack-CC2530-r200\Projects\SappWsn\..\..\Components\mac\include\
#        -I
#        E:\qq下载文件\ZStack-CC2530-r200\ZStack-CC2530-r200\Projects\SappWsn\..\..\Components\mac\high_level\
#        -I
#        E:\qq下载文件\ZStack-CC2530-r200\ZStack-CC2530-r200\Projects\SappWsn\..\..\Components\mac\low_level\srf04\
#        -I
#        E:\qq下载文件\ZStack-CC2530-r200\ZStack-CC2530-r200\Projects\SappWsn\..\..\Components\mac\low_level\srf04\single_chip\
#        -I
#        E:\qq下载文件\ZStack-CC2530-r200\ZStack-CC2530-r200\Projects\SappWsn\..\..\Components\mt\
#        -I
#        E:\qq下载文件\ZStack-CC2530-r200\ZStack-CC2530-r200\Projects\SappWsn\..\..\Components\osal\include\
#        -I
#        E:\qq下载文件\ZStack-CC2530-r200\ZStack-CC2530-r200\Projects\SappWsn\..\..\Components\services\saddr\
#        -I
#        E:\qq下载文件\ZStack-CC2530-r200\ZStack-CC2530-r200\Projects\SappWsn\..\..\Components\services\sdata\
#        -I
#        E:\qq下载文件\ZStack-CC2530-r200\ZStack-CC2530-r200\Projects\SappWsn\..\..\Components\stack\af\
#        -I
#        E:\qq下载文件\ZStack-CC2530-r200\ZStack-CC2530-r200\Projects\SappWsn\..\..\Components\stack\nwk\
#        -I
#        E:\qq下载文件\ZStack-CC2530-r200\ZStack-CC2530-r200\Projects\SappWsn\..\..\Components\stack\sapi\
#        -I
#        E:\qq下载文件\ZStack-CC2530-r200\ZStack-CC2530-r200\Projects\SappWsn\..\..\Components\stack\sec\
#        -I
#        E:\qq下载文件\ZStack-CC2530-r200\ZStack-CC2530-r200\Projects\SappWsn\..\..\Components\stack\sys\
#        -I
#        E:\qq下载文件\ZStack-CC2530-r200\ZStack-CC2530-r200\Projects\SappWsn\..\..\Components\stack\zdo\
#        -I
#        E:\qq下载文件\ZStack-CC2530-r200\ZStack-CC2530-r200\Projects\SappWsn\..\..\Components\zmac\
#        -I
#        E:\qq下载文件\ZStack-CC2530-r200\ZStack-CC2530-r200\Projects\SappWsn\..\..\Components\zmac\f8w\
#        -Ohz --require_prototypes --no_code_motion)
#    Locale             =  Chinese (Simplified)_CHN.936
#    List file          =  
#        E:\qq下载文件\ZStack-CC2530-r200\ZStack-CC2530-r200\Projects\SappWsn\CoordinatorEB\List\ZDApp.lst
#    Object file        =  
#        E:\qq下载文件\ZStack-CC2530-r200\ZStack-CC2530-r200\Projects\SappWsn\CoordinatorEB\Obj\ZDApp.r51
#
###############################################################################

E:\qq下载文件\ZStack-CC2530-r200\ZStack-CC2530-r200\Components\stack\zdo\ZDApp.c
      1          /**************************************************************************************************
      2            Filename:       ZDApp.c
      3            Revised:        $Date: 2011-04-13 10:12:34 -0700 (Wed, 13 Apr 2011) $
      4            Revision:       $Revision: 25678 $
      5          
      6            Description:    This file contains the interface to the Zigbee Device Application. This is the
      7                            Application part that the user can change. This also contains the Task functions.
      8          
      9          
     10            Copyright 2004-2011 Texas Instruments Incorporated. All rights reserved.
     11          
     12            IMPORTANT: Your use of this Software is limited to those specific rights
     13            granted under the terms of a software license agreement between the user
     14            who downloaded the software, his/her employer (which must be your employer)
     15            and Texas Instruments Incorporated (the "License").  You may not use this
     16            Software unless you agree to abide by the terms of the License. The License
     17            limits your use, and you acknowledge, that the Software may not be modified,
     18            copied or distributed unless embedded on a Texas Instruments microcontroller
     19            or used solely and exclusively in conjunction with a Texas Instruments radio
     20            frequency transceiver, which is integrated into your product.  Other than for
     21            the foregoing purpose, you may not use, reproduce, copy, prepare derivative
     22            works of, modify, distribute, perform, display or sell this Software and/or
     23            its documentation for any purpose.
     24          
     25            YOU FURTHER ACKNOWLEDGE AND AGREE THAT THE SOFTWARE AND DOCUMENTATION ARE
     26            PROVIDED 揂S IS?WITHOUT WARRANTY OF ANY KIND, EITHER EXPRESS OR IMPLIED,
     27            INCLUDING WITHOUT LIMITATION, ANY WARRANTY OF MERCHANTABILITY, TITLE,
     28            NON-INFRINGEMENT AND FITNESS FOR A PARTICULAR PURPOSE. IN NO EVENT SHALL
     29            TEXAS INSTRUMENTS OR ITS LICENSORS BE LIABLE OR OBLIGATED UNDER CONTRACT,
     30            NEGLIGENCE, STRICT LIABILITY, CONTRIBUTION, BREACH OF WARRANTY, OR OTHER
     31            LEGAL EQUITABLE THEORY ANY DIRECT OR INDIRECT DAMAGES OR EXPENSES
     32            INCLUDING BUT NOT LIMITED TO ANY INCIDENTAL, SPECIAL, INDIRECT, PUNITIVE
     33            OR CONSEQUENTIAL DAMAGES, LOST PROFITS OR LOST DATA, COST OF PROCUREMENT
     34            OF SUBSTITUTE GOODS, TECHNOLOGY, SERVICES, OR ANY CLAIMS BY THIRD PARTIES
     35            (INCLUDING BUT NOT LIMITED TO ANY DEFENSE THEREOF), OR OTHER SIMILAR COSTS.
     36          
     37            Should you have any questions regarding your right to use this Software,
     38            contact Texas Instruments Incorporated at www.TI.com.
     39          **************************************************************************************************/
     40          
     41          /*********************************************************************
     42           * INCLUDES
     43           */
     44          
     45          #include "ZComDef.h"
     46          #include "ZMac.h"
     47          #include "OSAL.h"
     48          #include "OSAL_Tasks.h"
     49          #include "OSAL_PwrMgr.h"
     50          #include "OSAL_Nv.h"
     51          #include "AF.h"
     52          #include "APSMEDE.h"
     53          #include "NLMEDE.h"
     54          #include "AddrMgr.h"
     55          #include "ZDProfile.h"
     56          #include "ZDObject.h"
     57          #include "ZDConfig.h"
     58          #include "ZDSecMgr.h"
     59          #include "ZDApp.h"
     60          #include "DebugTrace.h"
     61          #include "nwk_util.h"
     62          #include "OnBoard.h"
     63          #include "ZGlobals.h"
     64          #include "ZDNwkMgr.h"
     65          #include "rtg.h"
     66          
     67          #include "ssp.h"
     68          
     69          /* HAL */
     70          #include "hal_led.h"
     71          #include "hal_lcd.h"
     72          #include "hal_key.h"
     73          
     74          #if defined( MT_MAC_FUNC ) || defined( MT_MAC_CB_FUNC )
     75            #error "ERROR! MT_MAC functionalities should be disabled on ZDO devices"
     76          #endif
     77          
     78          /*********************************************************************
     79           * CONSTANTS
     80           */
     81          
     82          #if !defined( NWK_START_DELAY )
     83            #define NWK_START_DELAY             100   // in milliseconds
     84          #endif
     85          
     86          #if !defined( LEAVE_RESET_DELAY )
     87            #define LEAVE_RESET_DELAY           5000  // in milliseconds
     88          #endif
     89          
     90          // Init ZDO, but hold and wait for application to start the joining or
     91          // forming network
     92          #define ZDO_INIT_HOLD_NWK_START       0xFFFF
     93          
     94          #if !defined( EXTENDED_JOINING_RANDOM_MASK )
     95            #define EXTENDED_JOINING_RANDOM_MASK 0x007F
     96          #endif
     97          
     98          #if !defined( BEACON_REQUEST_DELAY )
     99            #define BEACON_REQUEST_DELAY        100   // in milliseconds
    100          #endif
    101          
    102          #if !defined( BEACON_REQ_DELAY_MASK )
    103            #define BEACON_REQ_DELAY_MASK       0x007F
    104          #endif
    105          
    106          #define MAX_RESUME_RETRY            3
    107          
    108          #define MAX_DEVICE_UNAUTH_TIMEOUT   5000  // 5 seconds
    109          
    110          // Beacon Order Settings (see NLMEDE.h)
    111          #define DEFAULT_BEACON_ORDER        BEACON_ORDER_NO_BEACONS
    112          #define DEFAULT_SUPERFRAME_ORDER    DEFAULT_BEACON_ORDER
    113          
    114          #if !defined( MAX_NWK_FRAMECOUNTER_CHANGES )
    115            // The number of times the frame counter can change before
    116            // saving to NV
    117            #define MAX_NWK_FRAMECOUNTER_CHANGES    1000
    118          #endif
    119          
    120          // Leave control bits
    121          #define ZDAPP_LEAVE_CTRL_INIT 0
    122          #define ZDAPP_LEAVE_CTRL_SET  1
    123          #define ZDAPP_LEAVE_CTRL_RA   2
    124          
    125          // Address Manager Stub Implementation
    126          #define ZDApp_NwkWriteNVRequest AddrMgrWriteNVRequest
    127          
    128          
    129          #if !defined ZDO_NV_SAVE_RFDs
    130          #define ZDO_NV_SAVE_RFDs  TRUE
    131          #endif
    132          
    133          // Delay time before updating NWK NV data to force fewer writes during high activity.
    134          #if ZDO_NV_SAVE_RFDs
    135          #define ZDAPP_UPDATE_NWK_NV_TIME 700
    136          #else
    137          #define ZDAPP_UPDATE_NWK_NV_TIME 65000
    138          #endif
    139          
    140          /*********************************************************************
    141           * GLOBAL VARIABLES
    142           */
    143          
    144          #if defined( LCD_SUPPORTED )
    145            uint8 MatchRsps = 0;
    146          #endif
    147          

   \                                 In  segment XDATA_I, align 1, keep-with-next
    148          uint8 zdoDiscCounter = 1;
   \                     zdoDiscCounter:
   \   000000                DS 1
   \   000001                REQUIRE `?<Initializer for zdoDiscCounter>`
   \   000001                REQUIRE __INIT_XDATA_I
    149          

   \                                 In  segment XDATA_Z, align 1, keep-with-next
    150          zAddrType_t ZDAppNwkAddr;
   \                     ZDAppNwkAddr:
   \   000000                DS 9
   \   000009                REQUIRE __INIT_XDATA_Z
    151          

   \                                 In  segment XDATA_Z, align 1, keep-with-next
    152          uint8 zdappMgmtNwkDiscRspTransSeq;
   \                     zdappMgmtNwkDiscRspTransSeq:
   \   000000                DS 1
   \   000001                REQUIRE __INIT_XDATA_Z

   \                                 In  segment XDATA_Z, align 1, keep-with-next
    153          uint8 zdappMgmtNwkDiscReqInProgress = FALSE;
   \                     zdappMgmtNwkDiscReqInProgress:
   \   000000                DS 1
   \   000001                REQUIRE __INIT_XDATA_Z

   \                                 In  segment XDATA_Z, align 1, keep-with-next
    154          zAddrType_t zdappMgmtNwkDiscRspAddr;
   \                     zdappMgmtNwkDiscRspAddr:
   \   000000                DS 9
   \   000009                REQUIRE __INIT_XDATA_Z

   \                                 In  segment XDATA_Z, align 1, keep-with-next
    155          uint8 zdappMgmtNwkDiscStartIndex;
   \                     zdappMgmtNwkDiscStartIndex:
   \   000000                DS 1
   \   000001                REQUIRE __INIT_XDATA_Z

   \                                 In  segment XDATA_Z, align 1, keep-with-next
    156          uint8 zdappMgmtSavedNwkState;
   \                     zdappMgmtSavedNwkState:
   \   000000                DS 1
   \   000001                REQUIRE __INIT_XDATA_Z
    157          

   \                                 In  segment XDATA_Z, align 1, keep-with-next
    158          uint16 nwkFrameCounterChanges = 0;
   \                     nwkFrameCounterChanges:
   \   000000                DS 2
   \   000002                REQUIRE __INIT_XDATA_Z

   \                                 In  segment XDATA_I, align 1, keep-with-next
    159          uint8 continueJoining = TRUE;
   \                     continueJoining:
   \   000000                DS 1
   \   000001                REQUIRE `?<Initializer for continueJoining>`
   \   000001                REQUIRE __INIT_XDATA_I
    160          

   \                                 In  segment XDATA_Z, align 1, keep-with-next
    161          uint8  _tmpRejoinState;
   \                     _tmpRejoinState:
   \   000000                DS 1
   \   000001                REQUIRE __INIT_XDATA_Z
    162          
    163          // The extended PanID used in ZDO layer for rejoin.

   \                                 In  segment XDATA_Z, align 1, keep-with-next
    164          uint8 ZDO_UseExtendedPANID[Z_EXTADDR_LEN];
   \                     ZDO_UseExtendedPANID:
   \   000000                DS 8
   \   000008                REQUIRE __INIT_XDATA_Z
    165          

   \                                 In  segment XDATA_Z, align 1, keep-with-next
    166          pfnZdoCb zdoCBFunc[MAX_ZDO_CB_FUNC];
   \                     zdoCBFunc:
   \   000000                DS 12
   \   00000C                REQUIRE __INIT_XDATA_Z
    167          
    168          /*********************************************************************
    169           * EXTERNAL VARIABLES
    170           */
    171          
    172          /*********************************************************************
    173           * EXTERNAL FUNCTIONS
    174           */
    175          
    176          /*********************************************************************
    177           * LOCAL FUNCTIONS
    178           */
    179          
    180          void ZDApp_NetworkStartEvt( void );
    181          void ZDApp_DeviceAuthEvt( void );
    182          void ZDApp_SaveNetworkStateEvt( void );
    183          
    184          uint8 ZDApp_ReadNetworkRestoreState( void );
    185          uint8 ZDApp_RestoreNetworkState( void );
    186          void ZDAppDetermineDeviceType( void );
    187          void ZDApp_InitUserDesc( void );
    188          void ZDAppCheckForHoldKey( void );
    189          void ZDApp_ProcessOSALMsg( osal_event_hdr_t *msgPtr );
    190          void ZDApp_ProcessNetworkJoin( void );
    191          void ZDApp_SetCoordAddress( uint8 endPoint, uint8 dstEP );
    192          uint8 ZDApp_RestoreNwkKey( void );
    193          networkDesc_t* ZDApp_NwkDescListProcessing(void);
    194          
    195          void ZDApp_SecInit( uint8 state );
    196          UINT16 ZDApp_ProcessSecEvent( uint8 task_id, UINT16 events );
    197          void ZDApp_ProcessSecMsg( osal_event_hdr_t *msgPtr );
    198          
    199          void ZDApp_SendMsg( uint8 taskID, uint8 cmd, uint8 len, uint8 *buf );
    200          
    201          void ZDApp_ResetTimerStart( uint16 delay );
    202          void ZDApp_ResetTimerCancel( void );
    203          void ZDApp_LeaveCtrlInit( void );
    204          void ZDApp_LeaveCtrlSet( uint8 ra );
    205          uint8 ZDApp_LeaveCtrlBypass( void );
    206          void ZDApp_LeaveCtrlStartup( devStates_t* state, uint16* startDelay );
    207          void ZDApp_LeaveUpdate( uint16 nwkAddr, uint8* extAddr,
    208                                  uint8 removeChildren );
    209          void ZDApp_NodeProfileSync( uint8 stackProfile );
    210          void ZDApp_ProcessMsgCBs( zdoIncomingMsg_t *inMsg );
    211          void ZDApp_RegisterCBs( void );
    212          void ZDApp_InitZdoCBFunc(void);
    213          
    214          /*********************************************************************
    215           * LOCAL VARIABLES
    216           */
    217          

   \                                 In  segment XDATA_Z, align 1, keep-with-next
    218          uint8 ZDAppTaskID;
   \                     ZDAppTaskID:
   \   000000                DS 1
   \   000001                REQUIRE __INIT_XDATA_Z

   \                                 In  segment XDATA_Z, align 1, keep-with-next
    219          uint8 nwkStatus;
   \                     nwkStatus:
   \   000000                DS 1
   \   000001                REQUIRE __INIT_XDATA_Z

   \                                 In  segment XDATA_Z, align 1, keep-with-next
    220          endPointDesc_t *ZDApp_AutoFindMode_epDesc = (endPointDesc_t *)NULL;
   \                     ZDApp_AutoFindMode_epDesc:
   \   000000                DS 2
   \   000002                REQUIRE __INIT_XDATA_Z

   \                                 In  segment XDATA_Z, align 1, keep-with-next
    221          uint8 ZDApp_LeaveCtrl;
   \                     ZDApp_LeaveCtrl:
   \   000000                DS 1
   \   000001                REQUIRE __INIT_XDATA_Z
    222          
    223          #if defined( HOLD_AUTO_START )
    224            devStates_t devState = DEV_HOLD;
    225          #else

   \                                 In  segment XDATA_I, align 1, keep-with-next
    226            devStates_t devState = DEV_INIT;
   \                     devState:
   \   000000                DS 1
   \   000001                REQUIRE `?<Initializer for devState>`
   \   000001                REQUIRE __INIT_XDATA_I
    227          #endif
    228          
    229          #if ( ZG_BUILD_RTRONLY_TYPE ) || ( ZG_BUILD_ENDDEVICE_TYPE )
    230            devStartModes_t devStartMode = MODE_JOIN;     // Assume joining
    231            //devStartModes_t devStartMode = MODE_RESUME; // if already "directly joined"
    232                                  // to parent. Set to make the device do an Orphan scan.
    233          #else
    234            // Set the default to coodinator

   \                                 In  segment XDATA_I, align 1, keep-with-next
    235            devStartModes_t devStartMode = MODE_HARD;
   \                     devStartMode:
   \   000000                DS 1
   \   000001                REQUIRE `?<Initializer for devStartMode>`
   \   000001                REQUIRE __INIT_XDATA_I
    236          #endif
    237          

   \                                 In  segment XDATA_Z, align 1, keep-with-next
    238          uint8 retryCnt;
   \                     retryCnt:
   \   000000                DS 1
   \   000001                REQUIRE __INIT_XDATA_Z
    239          

   \                                 In  segment XDATA_I, align 1, keep-with-next
    240          endPointDesc_t ZDApp_epDesc =
   \                     ZDApp_epDesc:
   \   000000                DS 6
   \   000006                REQUIRE `?<Initializer for ZDApp_epDesc>`
   \   000006                REQUIRE __INIT_XDATA_I
    241          {
    242            ZDO_EP,
    243            &ZDAppTaskID,
    244            (SimpleDescriptionFormat_t *)NULL,  // No Simple description for ZDO
    245            (afNetworkLatencyReq_t)0            // No Network Latency req
    246          };
    247          

   \                                 In  segment XDATA_I, align 1, keep-with-next
    248          uint16 ZDApp_SavedPollRate = POLL_RATE;
   \                     ZDApp_SavedPollRate:
   \   000000                DS 2
   \   000002                REQUIRE `?<Initializer for ZDApp_SavedPollRate>`
   \   000002                REQUIRE __INIT_XDATA_I
    249          
    250          /*********************************************************************
    251           * @fn      ZDApp_Init
    252           *
    253           * @brief   ZDApp Initialization function.
    254           *
    255           * @param   task_id - ZDApp Task ID
    256           *
    257           * @return  None
    258           */

   \                                 In  segment BANKED_CODE, align 1, keep-with-next
    259          void ZDApp_Init( uint8 task_id )
   \                     ZDApp_Init:
    260          {
   \   000000   74F7         MOV       A,#-0x9
   \   000002   12....       LCALL     ?BANKED_ENTER_XDATA
   \   000005                ; Saved register size: 9
   \   000005                ; Auto size: 0
   \   000005   E9           MOV       A,R1
    261            // Save the task ID
    262            ZDAppTaskID = task_id;
   \   000006   90....       MOV       DPTR,#ZDAppTaskID
   \   000009   F0           MOVX      @DPTR,A
    263          
    264            // Initialize the ZDO global device short address storage
    265            ZDAppNwkAddr.addrMode = Addr16Bit;
   \   00000A   90....       MOV       DPTR,#ZDAppNwkAddr + 8
   \   00000D   7402         MOV       A,#0x2
   \   00000F   F0           MOVX      @DPTR,A
    266            ZDAppNwkAddr.addr.shortAddr = INVALID_NODE_ADDR;
   \   000010   90....       MOV       DPTR,#ZDAppNwkAddr
   \   000013   74FE         MOV       A,#-0x2
   \   000015   F0           MOVX      @DPTR,A
   \   000016   A3           INC       DPTR
   \   000017   04           INC       A
   \   000018   F0           MOVX      @DPTR,A
    267            (void)NLME_GetExtAddr();  // Load the saveExtAddr pointer.
   \   000019                ; Setup parameters for call to function NLME_GetExtAddr
   \   000019   12....       LCALL     `??NLME_GetExtAddr::?relay`; Banked call to: NLME_GetExtAddr
    268          
    269            // Check for manual "Hold Auto Start"
    270            ZDAppCheckForHoldKey();
    271          
    272            // Initialize ZDO items and setup the device - type of device to create.
    273            ZDO_Init();
   \   00001C                ; Setup parameters for call to function ZDO_Init
   \   00001C   12....       LCALL     `??ZDO_Init::?relay`; Banked call to: ZDO_Init
    274          
    275            // Register the endpoint description with the AF
    276            // This task doesn't have a Simple description, but we still need
    277            // to register the endpoint.
    278            afRegister( (endPointDesc_t *)&ZDApp_epDesc );
   \   00001F                ; Setup parameters for call to function afRegister
   \   00001F   7A..         MOV       R2,#ZDApp_epDesc & 0xff
   \   000021   7B..         MOV       R3,#(ZDApp_epDesc >> 8) & 0xff
   \   000023   12....       LCALL     `??afRegister::?relay`; Banked call to: afRegister
    279          
    280          #if defined( ZDO_USERDESC_RESPONSE )
    281            ZDApp_InitUserDesc();
   \   000026                ; Setup parameters for call to function ZDApp_InitUserDesc
   \   000026   12....       LCALL     `??ZDApp_InitUserDesc::?relay`; Banked call to: ZDApp_InitUserDesc
    282          #endif // ZDO_USERDESC_RESPONSE
    283          
    284            // Start the device?
    285            if ( devState != DEV_HOLD )
   \   000029   90....       MOV       DPTR,#devState
   \   00002C   E0           MOVX      A,@DPTR
   \   00002D   6006         JZ        ??ZDApp_Init_0
    286            {
    287              ZDOInitDevice( 0 );
   \   00002F                ; Setup parameters for call to function ZDOInitDevice
   \   00002F   7A00         MOV       R2,#0x0
   \   000031   7B00         MOV       R3,#0x0
   \   000033   8004         SJMP      ??ZDApp_Init_1
    288            }
    289            else
    290            {
    291              ZDOInitDevice( ZDO_INIT_HOLD_NWK_START );
   \                     ??ZDApp_Init_0:
   \   000035                ; Setup parameters for call to function ZDOInitDevice
   \   000035   7AFF         MOV       R2,#-0x1
   \   000037   7BFF         MOV       R3,#-0x1
   \                     ??ZDApp_Init_1:
   \   000039   12....       LCALL     `??ZDOInitDevice::?relay`; Banked call to: ZDOInitDevice
    292          #if 0
    293              // Blink LED to indicate HOLD_START
    294              HalLedBlink ( HAL_LED_4, 0, 50, 500 );
    295          #endif
    296            }
    297          
    298            // Initialize the ZDO callback function pointers zdoCBFunc[]
    299            ZDApp_InitZdoCBFunc();
   \   00003C                ; Setup parameters for call to function ZDApp_InitZdoCBFunc
   \   00003C   12....       LCALL     `??ZDApp_InitZdoCBFunc::?relay`; Banked call to: ZDApp_InitZdoCBFunc
    300          
    301            ZDApp_RegisterCBs();
   \   00003F                ; Setup parameters for call to function ZDApp_RegisterCBs
   \   00003F   12....       LCALL     `??ZDApp_RegisterCBs::?relay`; Banked call to: ZDApp_RegisterCBs
    302          } /* ZDApp_Init() */
   \   000042   02....       LJMP      ??Subroutine51_0 & 0xFFFF

   \                                 In  segment BANKED_CODE, align 1, keep-with-next
   \                     ??Subroutine51_0:
   \   000000   7F01         MOV       R7,#0x1
   \   000002   02....       LJMP      ?BANKED_LEAVE_XDATA
    303          
    304          /*********************************************************************
    305           * @fn          ZDApp_SecInit
    306           *
    307           * @brief       ZDApp initialize security.
    308           *
    309           * @param       state - device initialization state
    310           *
    311           * @return      none
    312           */

   \                                 In  segment BANKED_CODE, align 1, keep-with-next
    313          void ZDApp_SecInit( uint8 state )
   \                     ZDApp_SecInit:
    314          {
   \   000000   74F7         MOV       A,#-0x9
   \   000002   12....       LCALL     ?BANKED_ENTER_XDATA
   \   000005                ; Saved register size: 9
   \   000005                ; Auto size: 0
    315            uint8 zgPreConfigKey[SEC_KEY_LEN];
    316          
    317            if ( ZG_SECURE_ENABLED && ZG_BUILD_COORDINATOR_TYPE && ZG_DEVICE_COORDINATOR_TYPE )
    318            {
    319              // Set the Trust Center bit
    320              ZDO_Config_Node_Descriptor.ServerMask |= PRIM_TRUST_CENTER;
    321            }
    322          
    323            if ( ZG_CHECK_SECURITY_MODE == ZG_SECURITY_PRO_HIGH )
    324            {
    325              ZDO_Config_Node_Descriptor.CapabilityFlags |= CAPINFO_SECURITY_CAPABLE;
    326            }
    327          
    328            // Initialize ZigBee Device Security Manager
    329            ZDSecMgrInit(state);
   \   000005                ; Setup parameters for call to function ZDSecMgrInit
   \   000005   12....       LCALL     `??ZDSecMgrInit::?relay`; Banked call to: ZDSecMgrInit
    330          
    331            if ( ZG_SECURE_ENABLED )
    332            {
    333              if ( state != ZDO_INITDEV_RESTORED_NETWORK_STATE )
    334              {
    335                nwkFrameCounter = 0;
    336          
    337                if( _NIB.nwkKeyLoaded == FALSE )
    338                {
    339                  if ( ( ZG_BUILD_COORDINATOR_TYPE && ZG_DEVICE_COORDINATOR_TYPE          ) ||
    340                       ( ( zgSecurityMode == ZG_SECURITY_RESIDENTIAL ) && zgPreConfigKeys )    )
    341                  {
    342                      ZDSecMgrReadKeyFromNv(ZCD_NV_PRECFGKEY, zgPreConfigKey);
    343                      SSP_UpdateNwkKey( zgPreConfigKey, 0);
    344                      SSP_SwitchNwkKey( 0 );
    345          
    346                      // clear local copy of key
    347                      osal_memset(zgPreConfigKey, 0x00, SEC_KEY_LEN);
    348                  }
    349                }
    350              }
    351            }
    352          }
   \   000008   02....       LJMP      ??Subroutine51_0 & 0xFFFF
    353          
    354          /*********************************************************************
    355           * @fn      ZDApp_event_loop()
    356           *
    357           * @brief   Main event loop for Zigbee device objects task. This function
    358           *          should be called at periodic intervals.
    359           *
    360           * @param   task_id - Task ID
    361           * @param   events  - Bitmap of events
    362           *
    363           * @return  none
    364           */

   \                                 In  segment BANKED_CODE, align 1, keep-with-next
    365          UINT16 ZDApp_event_loop( uint8 task_id, UINT16 events )
   \                     ZDApp_event_loop:
    366          {
   \   000000                REQUIRE ?V0
   \   000000                REQUIRE ?V1
   \   000000                REQUIRE ?V2
   \   000000                REQUIRE ?V3
   \   000000   74F4         MOV       A,#-0xc
   \   000002   12....       LCALL     ?BANKED_ENTER_XDATA
   \   000005                ; Saved register size: 12
   \   000005                ; Auto size: 0
   \   000005   EA           MOV       A,R2
   \   000006   FE           MOV       R6,A
   \   000007   EB           MOV       A,R3
   \   000008   FF           MOV       R7,A
    367            uint8 *msg_ptr;
    368          
    369            if ( events & SYS_EVENT_MSG )
   \   000009   5480         ANL       A,#0x80
   \   00000B   702F         JNZ       ??ZDApp_event_loop_0
    370            {
    371              while ( (msg_ptr = osal_msg_receive( ZDAppTaskID )) )
    372              {
    373                ZDApp_ProcessOSALMsg( (osal_event_hdr_t *)msg_ptr );
    374          
    375                // Release the memory
    376                osal_msg_deallocate( msg_ptr );
    377              }
    378          
    379              // Return unprocessed events
    380              return (events ^ SYS_EVENT_MSG);
    381            }
    382          
    383            if ( events & ZDO_NETWORK_INIT )
   \   00000D   EA           MOV       A,R2
   \   00000E   A2E0         MOV       C,0xE0 /* A   */.0
   \   000010   5041         JNC       ??ZDApp_event_loop_1
    384            {
    385              // Initialize apps and start the network
    386              devState = DEV_INIT;
   \   000012   90....       MOV       DPTR,#devState
   \   000015   7401         MOV       A,#0x1
   \   000017   12....       LCALL     ??Subroutine45_0 & 0xFFFF
    387              osal_set_event( ZDAppTaskID, ZDO_STATE_CHANGE_EVT );
    388          
    389              ZDO_StartDevice( (uint8)ZDO_Config_Node_Descriptor.LogicalType, devStartMode,
    390                               DEFAULT_BEACON_ORDER, DEFAULT_SUPERFRAME_ORDER );
   \                     ??CrossCallReturnLabel_68:
   \   00001A                ; Setup parameters for call to function ZDO_StartDevice
   \   00001A   7C0F         MOV       R4,#0xf
   \   00001C   7B0F         MOV       R3,#0xf
   \   00001E   90....       MOV       DPTR,#devStartMode
   \   000021   E0           MOVX      A,@DPTR
   \   000022   FA           MOV       R2,A
   \   000023   90....       MOV       DPTR,#ZDO_Config_Node_Descriptor
   \   000026   E0           MOVX      A,@DPTR
   \   000027   5407         ANL       A,#0x7
   \   000029   F9           MOV       R1,A
   \   00002A   12....       LCALL     `??ZDO_StartDevice::?relay`; Banked call to: ZDO_StartDevice
    391          
    392              // Return unprocessed events
    393              return (events ^ ZDO_NETWORK_INIT);
   \   00002D   EE           MOV       A,R6
   \   00002E   6401         XRL       A,#0x1
   \   000030   8076         SJMP      ??ZDApp_event_loop_2
    394            }
   \                     ??ZDApp_event_loop_3:
   \   000032                ; Setup parameters for call to function ZDApp_ProcessOSALMsg
   \   000032   12....       LCALL     `??ZDApp_ProcessOSALMsg::?relay`; Banked call to: ZDApp_ProcessOSALMsg
   \   000035                ; Setup parameters for call to function osal_msg_deallocate
   \   000035   AA..         MOV       R2,?V0
   \   000037   AB..         MOV       R3,?V1
   \   000039   12....       LCALL     `??osal_msg_deallocate::?relay`; Banked call to: osal_msg_deallocate
   \                     ??ZDApp_event_loop_0:
   \   00003C                ; Setup parameters for call to function osal_msg_receive
   \   00003C   90....       MOV       DPTR,#ZDAppTaskID
   \   00003F   E0           MOVX      A,@DPTR
   \   000040   F9           MOV       R1,A
   \   000041   12....       LCALL     `??osal_msg_receive::?relay`; Banked call to: osal_msg_receive
   \   000044   8A..         MOV       ?V0,R2
   \   000046   8B..         MOV       ?V1,R3
   \   000048   EA           MOV       A,R2
   \   000049   4B           ORL       A,R3
   \   00004A   70E6         JNZ       ??ZDApp_event_loop_3
   \   00004C   EE           MOV       A,R6
   \   00004D   FA           MOV       R2,A
   \   00004E   EF           MOV       A,R7
   \   00004F   6480         XRL       A,#0x80
   \   000051   806C         SJMP      ??ZDApp_event_loop_4
    395          
    396            if ( ZSTACK_ROUTER_BUILD )
    397            {
    398              if ( events & ZDO_NETWORK_START )
   \                     ??ZDApp_event_loop_1:
   \   000053   5402         ANL       A,#0x2
   \   000055   6008         JZ        ??ZDApp_event_loop_5
    399              {
    400                ZDApp_NetworkStartEvt();
   \   000057                ; Setup parameters for call to function ZDApp_NetworkStartEvt
   \   000057   12....       LCALL     `??ZDApp_NetworkStartEvt::?relay`; Banked call to: ZDApp_NetworkStartEvt
    401          
    402                // Return unprocessed events
    403                return (events ^ ZDO_NETWORK_START);
   \   00005A   EE           MOV       A,R6
   \   00005B   6402         XRL       A,#0x2
   \   00005D   8049         SJMP      ??ZDApp_event_loop_2
    404              }
    405          
    406              if ( events & ZDO_ROUTER_START )
   \                     ??ZDApp_event_loop_5:
   \   00005F   EA           MOV       A,R2
   \   000060   5420         ANL       A,#0x20
   \   000062   601E         JZ        ??ZDApp_event_loop_6
    407              {
    408                if ( nwkStatus == ZSuccess )
   \   000064   90....       MOV       DPTR,#nwkStatus
   \   000067   E0           MOVX      A,@DPTR
   \   000068   7010         JNZ       ??ZDApp_event_loop_7
    409                {
    410                  if ( devState == DEV_END_DEVICE )
   \   00006A   90....       MOV       DPTR,#devState
   \   00006D   E0           MOVX      A,@DPTR
   \   00006E   6406         XRL       A,#0x6
   \   000070   7003         JNZ       ??ZDApp_event_loop_8
    411                    devState = DEV_ROUTER;
   \   000072   7407         MOV       A,#0x7
   \   000074   F0           MOVX      @DPTR,A
    412          
    413                  osal_pwrmgr_device( PWRMGR_ALWAYS_ON );
   \                     ??ZDApp_event_loop_8:
   \   000075                ; Setup parameters for call to function osal_pwrmgr_device
   \   000075   7900         MOV       R1,#0x0
   \   000077   12....       LCALL     `??osal_pwrmgr_device::?relay`; Banked call to: osal_pwrmgr_device
    414                }
    415                else
    416                {
    417                  // remain as end device!!
    418                }
    419                osal_set_event( ZDAppTaskID, ZDO_STATE_CHANGE_EVT );
   \                     ??ZDApp_event_loop_7:
   \   00007A                ; Setup parameters for call to function osal_set_event
   \   00007A   12....       LCALL     ?Subroutine13 & 0xFFFF
    420          
    421                // Return unprocessed events
    422                return (events ^ ZDO_ROUTER_START);
   \                     ??CrossCallReturnLabel_58:
   \   00007D   EE           MOV       A,R6
   \   00007E   6420         XRL       A,#0x20
   \   000080   8026         SJMP      ??ZDApp_event_loop_2
    423              }
    424            }
    425          
    426            if ( events & ZDO_STATE_CHANGE_EVT )
   \                     ??ZDApp_event_loop_6:
   \   000082   EA           MOV       A,R2
   \   000083   5410         ANL       A,#0x10
   \   000085   6025         JZ        ??ZDApp_event_loop_9
    427            {
    428              ZDO_UpdateNwkStatus( devState );
   \   000087                ; Setup parameters for call to function ZDO_UpdateNwkStatus
   \   000087   90....       MOV       DPTR,#devState
   \   00008A   E0           MOVX      A,@DPTR
   \   00008B   F9           MOV       R1,A
   \   00008C   12....       LCALL     `??ZDO_UpdateNwkStatus::?relay`; Banked call to: ZDO_UpdateNwkStatus
    429          
    430              // At start up, do one MTO route discovery if the device is a concentrator
    431              if ( zgConcentratorEnable == TRUE )
   \   00008F   90....       MOV       DPTR,#zgConcentratorEnable
   \   000092   E0           MOVX      A,@DPTR
   \   000093   6401         XRL       A,#0x1
   \   000095   700E         JNZ       ??CrossCallReturnLabel_83
    432              {
    433                // Start next event
    434                osal_start_timerEx( NWK_TaskID, NWK_MTO_RTG_REQ_EVT, 100 );
   \   000097                ; Setup parameters for call to function osal_start_timerEx
   \   000097   7C64         MOV       R4,#0x64
   \   000099   7D00         MOV       R5,#0x0
   \   00009B   7A00         MOV       R2,#0x0
   \   00009D   7B08         MOV       R3,#0x8
   \   00009F   90....       MOV       DPTR,#NWK_TaskID
   \   0000A2   12....       LCALL     ??Subroutine50_0 & 0xFFFF
    435              }
    436          
    437              // Return unprocessed events
    438              return (events ^ ZDO_STATE_CHANGE_EVT);
   \                     ??CrossCallReturnLabel_83:
   \   0000A5   EE           MOV       A,R6
   \   0000A6   6410         XRL       A,#0x10
   \                     ??ZDApp_event_loop_2:
   \   0000A8   FA           MOV       R2,A
   \   0000A9   EF           MOV       A,R7
   \   0000AA   8013         SJMP      ??ZDApp_event_loop_4
    439            }
    440          
    441            if ( events & ZDO_COMMAND_CNF )
   \                     ??ZDApp_event_loop_9:
   \   0000AC   EA           MOV       A,R2
   \   0000AD   5408         ANL       A,#0x8
   \   0000AF   6006         JZ        ??ZDApp_event_loop_10
    442            {
    443              // User defined logic
    444          
    445              // Return unprocessed events
    446              return (events ^ ZDO_COMMAND_CNF);
   \   0000B1   EA           MOV       A,R2
   \   0000B2   6408         XRL       A,#0x8
   \   0000B4   FA           MOV       R2,A
   \   0000B5   801E         SJMP      ??ZDApp_event_loop_11
    447            }
    448          
    449            if ( events & ZDO_NWK_UPDATE_NV )
   \                     ??ZDApp_event_loop_10:
   \   0000B7   EB           MOV       A,R3
   \   0000B8   5402         ANL       A,#0x2
   \   0000BA   6006         JZ        ??ZDApp_event_loop_12
    450            {
    451              ZDApp_SaveNetworkStateEvt();
    452          
    453              // Return unprocessed events
    454              return (events ^ ZDO_NWK_UPDATE_NV);
   \   0000BC   EB           MOV       A,R3
   \   0000BD   6402         XRL       A,#0x2
   \                     ??ZDApp_event_loop_4:
   \   0000BF   FB           MOV       R3,A
   \   0000C0   8013         SJMP      ??ZDApp_event_loop_11
    455            }
    456          
    457            if ( events & ZDO_DEVICE_RESET )
   \                     ??ZDApp_event_loop_12:
   \   0000C2   EA           MOV       A,R2
   \   0000C3   5404         ANL       A,#0x4
   \   0000C5   600A         JZ        ??ZDApp_event_loop_13
    458            {
    459          #ifdef ZBA_FALLBACK_NWKKEY
    460              if ( devState == DEV_END_DEVICE_UNAUTH )
    461              {
    462                ZDSecMgrFallbackNwkKey();
    463              }
    464              else
    465          #endif
    466              {
    467                // Set the NV startup option to force a "new" join.
    468                zgWriteStartupOptions( ZG_STARTUP_SET, ZCD_STARTOPT_DEFAULT_NETWORK_STATE );
   \   0000C7                ; Setup parameters for call to function zgWriteStartupOptions
   \   0000C7   7A02         MOV       R2,#0x2
   \   0000C9   79FF         MOV       R1,#-0x1
   \   0000CB   12....       LCALL     `??zgWriteStartupOptions::?relay`; Banked call to: zgWriteStartupOptions
    469          
    470                // The device has been in the UNAUTH state, so reset
    471                // Note: there will be no return from this call
    472                SystemResetSoft();
   \   0000CE                ; Setup parameters for call to function Onboard_soft_reset
   \   0000CE   12....       LCALL     Onboard_soft_reset & 0xFFFF
    473              }
    474            }
    475          
    476            if ( ZG_SECURE_ENABLED )
    477            {
    478              return ( ZDApp_ProcessSecEvent( task_id, events ) );
    479            }
    480            else
    481            {
    482              // Discard or make more handlers
    483              return 0;
   \                     ??ZDApp_event_loop_13:
   \   0000D1   7A00         MOV       R2,#0x0
   \   0000D3   7B00         MOV       R3,#0x0
    484            }
   \                     ??ZDApp_event_loop_11:
   \   0000D5   80..         SJMP      ??Subroutine44_0
    485          }

   \                                 In  segment BANKED_CODE, align 1, keep-with-next
   \                     ?Subroutine13:
   \   000000   7A10         MOV       R2,#0x10
   \   000002                REQUIRE ??Subroutine42_0
   \   000002                ; // Fall through to label ??Subroutine42_0

   \                                 In  segment BANKED_CODE, align 1, keep-with-next
   \                     ??Subroutine42_0:
   \   000000   7B00         MOV       R3,#0x0
   \   000002   90....       MOV       DPTR,#ZDAppTaskID
   \   000005   E0           MOVX      A,@DPTR
   \   000006   F9           MOV       R1,A
   \   000007   12....       LCALL     `??osal_set_event::?relay`; Banked call to: osal_set_event
   \   00000A   22           RET

   \                                 In  segment BANKED_CODE, align 1, keep-with-next
   \                     ??Subroutine44_0:
   \   000000   7F04         MOV       R7,#0x4
   \   000002   02....       LJMP      ?BANKED_LEAVE_XDATA

   \                                 In  segment BANKED_CODE, align 1, keep-with-next
   \                     ??Subroutine45_0:
   \   000000   F0           MOVX      @DPTR,A
   \   000001                ; Setup parameters for call to function osal_set_event
   \   000001                ; Setup parameters for call to function osal_set_event
   \   000001                ; Setup parameters for call to function osal_set_event
   \   000001   7A10         MOV       R2,#0x10
   \   000003   7B00         MOV       R3,#0x0
   \   000005   90....       MOV       DPTR,#ZDAppTaskID
   \   000008   E0           MOVX      A,@DPTR
   \   000009   F9           MOV       R1,A
   \   00000A   12....       LCALL     `??osal_set_event::?relay`; Banked call to: osal_set_event
   \   00000D   22           RET

   \                                 In  segment BANKED_CODE, align 1, keep-with-next
   \                     ??Subroutine50_0:
   \   000000   E0           MOVX      A,@DPTR
   \   000001   F9           MOV       R1,A
   \   000002   12....       LCALL     `??osal_start_timerEx::?relay`; Banked call to: osal_start_timerEx
   \   000005   22           RET
    486          
    487          /*********************************************************************
    488           * @fn      ZDApp_ProcessSecEvent()
    489           *
    490           * @brief   Process incoming security events.
    491           *
    492           * @param   task_id - Task ID
    493           * @param   events  - Bitmap of events
    494           *
    495           * @return  none
    496           */

   \                                 In  segment BANKED_CODE, align 1, keep-with-next
    497          UINT16 ZDApp_ProcessSecEvent( uint8 task_id, UINT16 events )
   \                     ZDApp_ProcessSecEvent:
    498          {
   \   000000   74F7         MOV       A,#-0x9
   \   000002   12....       LCALL     ?BANKED_ENTER_XDATA
   \   000005                ; Saved register size: 9
   \   000005                ; Auto size: 0
   \   000005   EA           MOV       A,R2
   \   000006   FE           MOV       R6,A
   \   000007   EB           MOV       A,R3
   \   000008   FF           MOV       R7,A
    499            (void)task_id;  // Intentionally unreferenced parameter
    500          
    501            if ( ZSTACK_ROUTER_BUILD )
    502            {
    503              if ( events & ZDO_NEW_DEVICE )
   \   000009   EA           MOV       A,R2
   \   00000A   5440         ANL       A,#0x40
   \   00000C   6016         JZ        ??ZDApp_ProcessSecEvent_0
    504              {
    505                // process the new device event
    506                if ( ZDSecMgrNewDeviceEvent() == TRUE )
   \   00000E                ; Setup parameters for call to function ZDSecMgrNewDeviceEvent
   \   00000E   12....       LCALL     `??ZDSecMgrNewDeviceEvent::?relay`; Banked call to: ZDSecMgrNewDeviceEvent
   \   000011   E9           MOV       A,R1
   \   000012   6401         XRL       A,#0x1
   \   000014   7009         JNZ       ??CrossCallReturnLabel_80
    507                {
    508                  osal_start_timerEx( ZDAppTaskID, ZDO_NEW_DEVICE, 1000 );
   \   000016                ; Setup parameters for call to function osal_start_timerEx
   \   000016   7CE8         MOV       R4,#-0x18
   \   000018   7D03         MOV       R5,#0x3
   \   00001A   7A40         MOV       R2,#0x40
   \   00001C   12....       LCALL     ?Subroutine21 & 0xFFFF
    509                }
    510          
    511                // Return unprocessed events
    512                return (events ^ ZDO_NEW_DEVICE);
   \                     ??CrossCallReturnLabel_80:
   \   00001F   EE           MOV       A,R6
   \   000020   6440         XRL       A,#0x40
   \   000022   800B         SJMP      ??ZDApp_ProcessSecEvent_1
    513              }
    514            }
    515          
    516            if ( (ZG_CHECK_SECURITY_MODE == ZG_SECURITY_PRO_HIGH)
    517                || (ZG_CHECK_SECURITY_MODE == ZG_SECURITY_SE_STANDARD) )
    518            {
    519              if ( ZG_BUILD_COORDINATOR_TYPE && ZG_DEVICE_COORDINATOR_TYPE )
    520              {
    521                if ( events & ZDO_SECMGR_EVENT )
    522                {
    523                  ZDSecMgrEvent();
    524          
    525                  // Return unprocessed events
    526                  return (events ^ ZDO_SECMGR_EVENT);
    527                }
    528              }
    529            }
    530          
    531            if ( events & ZDO_DEVICE_AUTH )
   \                     ??ZDApp_ProcessSecEvent_0:
   \   000024   EA           MOV       A,R2
   \   000025   5480         ANL       A,#0x80
   \   000027   600A         JZ        ??ZDApp_ProcessSecEvent_2
    532            {
    533              ZDApp_DeviceAuthEvt();
   \   000029                ; Setup parameters for call to function ZDApp_DeviceAuthEvt
   \   000029   12....       LCALL     `??ZDApp_DeviceAuthEvt::?relay`; Banked call to: ZDApp_DeviceAuthEvt
    534          
    535              // Return unprocessed events
    536              return (events ^ ZDO_DEVICE_AUTH);
   \   00002C   EE           MOV       A,R6
   \   00002D   6480         XRL       A,#0x80
   \                     ??ZDApp_ProcessSecEvent_1:
   \   00002F   FA           MOV       R2,A
   \   000030   EF           MOV       A,R7
   \   000031   8042         SJMP      ??ZDApp_ProcessSecEvent_3
    537            }
    538          
    539            if ( events & ZDO_FRAMECOUNTER_CHANGE )
   \                     ??ZDApp_ProcessSecEvent_2:
   \   000033   EB           MOV       A,R3
   \   000034   5404         ANL       A,#0x4
   \   000036   6026         JZ        ??ZDApp_ProcessSecEvent_4
    540            {
    541              if ( nwkFrameCounterChanges++ > MAX_NWK_FRAMECOUNTER_CHANGES )
   \   000038   90....       MOV       DPTR,#nwkFrameCounterChanges
   \   00003B   12....       LCALL     ??Subroutine52_0 & 0xFFFF
   \                     ??CrossCallReturnLabel_84:
   \   00003E   E8           MOV       A,R0
   \   00003F   2401         ADD       A,#0x1
   \   000041   FA           MOV       R2,A
   \   000042   E4           CLR       A
   \   000043   39           ADDC      A,R1
   \   000044   FB           MOV       R3,A
   \   000045   90....       MOV       DPTR,#nwkFrameCounterChanges
   \   000048   12....       LCALL     ??Subroutine57_0 & 0xFFFF
   \                     ??CrossCallReturnLabel_113:
   \   00004B   C3           CLR       C
   \   00004C   E8           MOV       A,R0
   \   00004D   94E9         SUBB      A,#-0x17
   \   00004F   E9           MOV       A,R1
   \   000050   9403         SUBB      A,#0x3
   \   000052   4003         JC        ??ZDApp_ProcessSecEvent_5
    542              {
    543                ZDApp_SaveNwkKey();
   \   000054                ; Setup parameters for call to function ZDApp_SaveNwkKey
   \   000054   12....       LCALL     `??ZDApp_SaveNwkKey::?relay`; Banked call to: ZDApp_SaveNwkKey
    544              }
    545          
    546              // Return unprocessed events
    547              return (events ^ ZDO_FRAMECOUNTER_CHANGE);
   \                     ??ZDApp_ProcessSecEvent_5:
   \   000057   EE           MOV       A,R6
   \   000058   FA           MOV       R2,A
   \   000059   EF           MOV       A,R7
   \   00005A   6404         XRL       A,#0x4
   \   00005C   8017         SJMP      ??ZDApp_ProcessSecEvent_3
    548            }
    549          
    550            if ( events & ZDO_APS_FRAMECOUNTER_CHANGE )
   \                     ??ZDApp_ProcessSecEvent_4:
   \   00005E   EB           MOV       A,R3
   \   00005F   5410         ANL       A,#0x10
   \   000061   6005         JZ        ??ZDApp_ProcessSecEvent_6
    551            {
    552          #if defined (NV_RESTORE)
    553              ZDSecMgrSaveApsLinkKey();
    554          #endif // (NV_RESTORE)
    555          
    556              // Return unprocessed events
    557              return (events ^ ZDO_APS_FRAMECOUNTER_CHANGE);
   \   000063   EB           MOV       A,R3
   \   000064   6410         XRL       A,#0x10
   \   000066   800D         SJMP      ??ZDApp_ProcessSecEvent_3
    558            }
    559          
    560            if ( events & ZDO_TCLK_FRAMECOUNTER_CHANGE )
   \                     ??ZDApp_ProcessSecEvent_6:
   \   000068   EB           MOV       A,R3
   \   000069   5408         ANL       A,#0x8
   \   00006B   600B         JZ        ??ZDApp_ProcessSecEvent_7
    561            {
    562              ZDSecMgrSaveTCLinkKey();
   \   00006D                ; Setup parameters for call to function ZDSecMgrSaveTCLinkKey
   \   00006D   12....       LCALL     `??ZDSecMgrSaveTCLinkKey::?relay`; Banked call to: ZDSecMgrSaveTCLinkKey
    563          
    564              // Return unprocessed events
    565              return (events ^ ZDO_TCLK_FRAMECOUNTER_CHANGE);
   \   000070   EE           MOV       A,R6
   \   000071   FA           MOV       R2,A
   \   000072   EF           MOV       A,R7
   \   000073   6408         XRL       A,#0x8
   \                     ??ZDApp_ProcessSecEvent_3:
   \   000075   FB           MOV       R3,A
   \   000076   8004         SJMP      ??ZDApp_ProcessSecEvent_8
    566            }
    567          
    568            // Discard or make more handlers
    569            return 0;
   \                     ??ZDApp_ProcessSecEvent_7:
   \   000078   7A00         MOV       R2,#0x0
   \   00007A   7B00         MOV       R3,#0x0
   \                     ??ZDApp_ProcessSecEvent_8:
   \   00007C   02....       LJMP      ??Subroutine51_0 & 0xFFFF
    570          }

   \                                 In  segment BANKED_CODE, align 1, keep-with-next
   \                     ?Subroutine21:
   \   000000   7B00         MOV       R3,#0x0
   \   000002   90....       MOV       DPTR,#ZDAppTaskID
   \   000005                REQUIRE ??Subroutine50_0
   \   000005                ; // Fall through to label ??Subroutine50_0

   \                                 In  segment BANKED_CODE, align 1, keep-with-next
   \                     ??Subroutine52_0:
   \   000000   E0           MOVX      A,@DPTR
   \   000001   F8           MOV       R0,A
   \   000002   A3           INC       DPTR
   \   000003   E0           MOVX      A,@DPTR
   \   000004   F9           MOV       R1,A
   \   000005   22           RET

   \                                 In  segment BANKED_CODE, align 1, keep-with-next
   \                     ??Subroutine57_0:
   \   000000   EA           MOV       A,R2
   \   000001   F0           MOVX      @DPTR,A
   \   000002   A3           INC       DPTR
   \   000003   EB           MOV       A,R3
   \   000004   F0           MOVX      @DPTR,A
   \   000005   22           RET
    571          
    572          /*********************************************************************
    573           * Application Functions
    574           */
    575          
    576          /*********************************************************************
    577           * @fn      ZDOInitDevice
    578           *
    579           * @brief   Start the device in the network.  This function will read
    580           *   ZCD_NV_STARTUP_OPTION (NV item) to determine whether or not to
    581           *   restore the network state of the device.
    582           *
    583           * @param   startDelay - timeDelay to start device (in milliseconds).
    584           *                       There is a jitter added to this delay:
    585           *                       ((NWK_START_DELAY + startDelay)
    586           *                       + (osal_rand() & EXTENDED_JOINING_RANDOM_MASK))
    587           *                       When startDelay is set to ZDO_INIT_HOLD_NWK_START
    588           *                       this function will hold the network init. Application
    589           *                       can start the device.
    590           *
    591           * NOTE:    If the application would like to force a "new" join, the
    592           *          application should set the ZCD_STARTOPT_DEFAULT_NETWORK_STATE
    593           *          bit in the ZCD_NV_STARTUP_OPTION NV item before calling
    594           *          this function. "new" join means to not restore the network
    595           *          state of the device. Use zgWriteStartupOptions() to set these
    596           *          options.
    597           *
    598           * @return
    599           *    ZDO_INITDEV_RESTORED_NETWORK_STATE  - The device's network state was
    600           *          restored.
    601           *    ZDO_INITDEV_NEW_NETWORK_STATE - The network state was initialized.
    602           *          This could mean that ZCD_NV_STARTUP_OPTION said to not restore, or
    603           *          it could mean that there was no network state to restore.
    604           *    ZDO_INITDEV_LEAVE_NOT_STARTED - Before the reset, a network leave was issued
    605           *          with the rejoin option set to TRUE.  So, the device was not
    606           *          started in the network (one time only).  The next time this
    607           *          function is called it will start.
    608           */

   \                                 In  segment BANKED_CODE, align 1, keep-with-next
    609          uint8 ZDOInitDevice( uint16 startDelay )
   \                     ZDOInitDevice:
    610          {
   \   000000                REQUIRE ?V0
   \   000000                REQUIRE ?V1
   \   000000   74F6         MOV       A,#-0xa
   \   000002   12....       LCALL     ?BANKED_ENTER_XDATA
   \   000005                ; Saved register size: 10
   \   000005                ; Auto size: 2
   \   000005   74FE         MOV       A,#-0x2
   \   000007   12....       LCALL     ?ALLOC_XSTACK8
   \   00000A   12....       LCALL     ?Subroutine10 & 0xFFFF
    611            uint8 networkStateNV = ZDO_INITDEV_NEW_NETWORK_STATE;
    612            uint16 extendedDelay = 0;
    613          
    614            if ( devState == DEV_HOLD )
   \                     ??CrossCallReturnLabel_117:
   \   00000D   90....       MOV       DPTR,#devState
   \   000010   E0           MOVX      A,@DPTR
   \   000011   7005         JNZ       ??ZDOInitDevice_0
    615            {
    616              // Initialize the RAM items table, in case an NV item has been updated.
    617              zgInitItems( FALSE );
   \   000013                ; Setup parameters for call to function zgInitItems
   \   000013   7900         MOV       R1,#0x0
   \   000015   12....       LCALL     `??zgInitItems::?relay`; Banked call to: zgInitItems
    618            }
    619          
    620            ZDConfig_InitDescriptors();
   \                     ??ZDOInitDevice_0:
   \   000018                ; Setup parameters for call to function ZDConfig_InitDescriptors
   \   000018   12....       LCALL     `??ZDConfig_InitDescriptors::?relay`; Banked call to: ZDConfig_InitDescriptors
    621            //devtag.071807.todo - fix this temporary solution
    622            _NIB.CapabilityFlags = ZDO_Config_Node_Descriptor.CapabilityFlags;
   \   00001B   90....       MOV       DPTR,#ZDO_Config_Node_Descriptor + 2
   \   00001E   E0           MOVX      A,@DPTR
   \   00001F   90....       MOV       DPTR,#_NIB + 14
   \   000022   F0           MOVX      @DPTR,A
    623          
    624          #if defined ( NV_RESTORE )
    625            // Get Keypad directly to see if a reset nv is needed.
    626            // Hold down the SW_BYPASS_NV key (defined in OnBoard.h)
    627            // while booting to skip past NV Restore.
    628            if ( HalKeyRead() == SW_BYPASS_NV )
    629              networkStateNV = ZDO_INITDEV_NEW_NETWORK_STATE;
    630            else
    631            {
    632              // Determine if NV should be restored
    633              networkStateNV = ZDApp_ReadNetworkRestoreState();
    634            }
    635          
    636            if ( networkStateNV == ZDO_INITDEV_RESTORED_NETWORK_STATE )
    637            {
    638              networkStateNV = ZDApp_RestoreNetworkState();
    639            }
    640            else
    641            {
    642              // Wipe out the network state in NV
    643              NLME_InitNV();
    644              NLME_SetDefaultNV();
    645              // clear NWK key values
    646              ZDSecMgrClearNVKeyValues();
    647            }
    648          #endif
    649          
    650            if ( networkStateNV == ZDO_INITDEV_NEW_NETWORK_STATE )
    651            {
    652              ZDAppDetermineDeviceType();
   \   000023                ; Setup parameters for call to function ZDAppDetermineDeviceType
   \   000023   12....       LCALL     `??ZDAppDetermineDeviceType::?relay`; Banked call to: ZDAppDetermineDeviceType
    653          
    654              // Only delay if joining network - not restoring network state
    655              extendedDelay = (uint16)((NWK_START_DELAY + startDelay)
    656                        + (osal_rand() & EXTENDED_JOINING_RANDOM_MASK));
   \   000026                ; Setup parameters for call to function osal_rand
   \   000026   12....       LCALL     `??osal_rand::?relay`; Banked call to: osal_rand
   \   000029   85..82       MOV       DPL,?XSP + 0
   \   00002C   85..83       MOV       DPH,?XSP + 1
   \   00002F   EA           MOV       A,R2
   \   000030   547F         ANL       A,#0x7f
   \   000032   F8           MOV       R0,A
   \   000033   E0           MOVX      A,@DPTR
   \   000034   28           ADD       A,R0
   \   000035   F8           MOV       R0,A
   \   000036   A3           INC       DPTR
   \   000037   E0           MOVX      A,@DPTR
   \   000038   3400         ADDC      A,#0x0
   \   00003A   F9           MOV       R1,A
   \   00003B   E8           MOV       A,R0
   \   00003C   2464         ADD       A,#0x64
   \   00003E   FE           MOV       R6,A
   \   00003F   E4           CLR       A
   \   000040   39           ADDC      A,R1
   \   000041   FF           MOV       R7,A
    657            }
    658          
    659            // Initialize the security for type of device
    660            ZDApp_SecInit( networkStateNV );
   \   000042                ; Setup parameters for call to function ZDSecMgrInit
   \   000042   7901         MOV       R1,#0x1
   \   000044   12....       LCALL     `??ZDSecMgrInit::?relay`; Banked call to: ZDSecMgrInit
    661          
    662            if( ZDO_INIT_HOLD_NWK_START != startDelay )
   \   000047   85..82       MOV       DPL,?XSP + 0
   \   00004A   85..83       MOV       DPH,?XSP + 1
   \   00004D   E0           MOVX      A,@DPTR
   \   00004E   F4           CPL       A
   \   00004F   7003         JNZ       ??ZDOInitDevice_1
   \   000051   A3           INC       DPTR
   \   000052   E0           MOVX      A,@DPTR
   \   000053   F4           CPL       A
   \                     ??ZDOInitDevice_1:
   \   000054   602F         JZ        ??ZDOInitDevice_2
    663            {
    664              devState = DEV_INIT;    // Remove the Hold state
   \   000056   90....       MOV       DPTR,#devState
   \   000059   7401         MOV       A,#0x1
   \   00005B   F0           MOVX      @DPTR,A
    665          
    666              // Initialize leave control logic
    667              ZDApp_LeaveCtrlInit();
   \   00005C                ; Setup parameters for call to function ZDApp_LeaveCtrlInit
   \   00005C   12....       LCALL     `??ZDApp_LeaveCtrlInit::?relay`; Banked call to: ZDApp_LeaveCtrlInit
    668          
    669              // Check leave control reset settings
    670              ZDApp_LeaveCtrlStartup( &devState, &startDelay );
   \   00005F                ; Setup parameters for call to function ZDApp_LeaveCtrlStartup
   \   00005F   AC..         MOV       R4,?XSP + 0
   \   000061   AD..         MOV       R5,?XSP + 1
   \   000063   7A..         MOV       R2,#devState & 0xff
   \   000065   7B..         MOV       R3,#(devState >> 8) & 0xff
   \   000067   12....       LCALL     `??ZDApp_LeaveCtrlStartup::?relay`; Banked call to: ZDApp_LeaveCtrlStartup
    671          
    672              // Leave may make the hold state come back
    673              if ( devState == DEV_HOLD )
   \   00006A   90....       MOV       DPTR,#devState
   \   00006D   E0           MOVX      A,@DPTR
   \   00006E   700E         JNZ       ??ZDOInitDevice_3
    674              {
    675                // Set the NV startup option to force a "new" join.
    676                zgWriteStartupOptions( ZG_STARTUP_SET, ZCD_STARTOPT_DEFAULT_NETWORK_STATE );
   \   000070                ; Setup parameters for call to function zgWriteStartupOptions
   \   000070   7A02         MOV       R2,#0x2
   \   000072   79FF         MOV       R1,#-0x1
   \   000074   12....       LCALL     `??zgWriteStartupOptions::?relay`; Banked call to: zgWriteStartupOptions
    677          
    678                // Notify the applications
    679                osal_set_event( ZDAppTaskID, ZDO_STATE_CHANGE_EVT );
   \   000077                ; Setup parameters for call to function osal_set_event
   \   000077   12....       LCALL     ?Subroutine13 & 0xFFFF
    680          
    681                return ( ZDO_INITDEV_LEAVE_NOT_STARTED );   // Don't join - (one time).
   \                     ??CrossCallReturnLabel_59:
   \   00007A   7902         MOV       R1,#0x2
   \   00007C   8011         SJMP      ??ZDOInitDevice_4
    682              }
    683          
    684              // Trigger the network start
    685              ZDApp_NetworkInit( extendedDelay );
   \                     ??ZDOInitDevice_3:
   \   00007E                ; Setup parameters for call to function ZDApp_NetworkInit
   \   00007E   EE           MOV       A,R6
   \   00007F   FA           MOV       R2,A
   \   000080   EF           MOV       A,R7
   \   000081   FB           MOV       R3,A
   \   000082   12....       LCALL     `??ZDApp_NetworkInit::?relay`; Banked call to: ZDApp_NetworkInit
    686            }
    687          
    688            // set broadcast address mask to support broadcast filtering
    689            NLME_SetBroadcastFilter( ZDO_Config_Node_Descriptor.CapabilityFlags );
   \                     ??ZDOInitDevice_2:
   \   000085                ; Setup parameters for call to function NLME_SetBroadcastFilter
   \   000085   90....       MOV       DPTR,#ZDO_Config_Node_Descriptor + 2
   \   000088   E0           MOVX      A,@DPTR
   \   000089   F9           MOV       R1,A
   \   00008A   12....       LCALL     `??NLME_SetBroadcastFilter::?relay`; Banked call to: NLME_SetBroadcastFilter
    690          
    691            return ( networkStateNV );
   \   00008D   7901         MOV       R1,#0x1
   \                     ??ZDOInitDevice_4:
   \   00008F   02....       LJMP      ?Subroutine7 & 0xFFFF
    692          }

   \                                 In  segment BANKED_CODE, align 1, keep-with-next
   \                     ??Subroutine48_0:
   \   000000   12....       LCALL     ?DEALLOC_XSTACK8
   \   000003                REQUIRE ??Subroutine49_0
   \   000003                ; // Fall through to label ??Subroutine49_0

   \                                 In  segment BANKED_CODE, align 1, keep-with-next
   \                     ??Subroutine49_0:
   \   000000   7F02         MOV       R7,#0x2
   \   000002   02....       LJMP      ?BANKED_LEAVE_XDATA

   \                                 In  segment BANKED_CODE, align 1, keep-with-next
   \                     ?Subroutine7:
   \   000000   7402         MOV       A,#0x2
   \   000002   02....       LJMP      ??Subroutine48_0 & 0xFFFF

   \                                 In  segment BANKED_CODE, align 1, keep-with-next
   \                     ?Subroutine10:
   \   000000   85..82       MOV       DPL,?XSP + 0
   \   000003   85..83       MOV       DPH,?XSP + 1
   \   000006                REQUIRE ??Subroutine57_0
   \   000006                ; // Fall through to label ??Subroutine57_0
    693          
    694          /*********************************************************************
    695           * @fn      ZDApp_ReadNetworkRestoreState
    696           *
    697           * @brief   Read the ZCD_NV_STARTUP_OPTION NV Item to state whether
    698           *          or not to restore the network state.
    699           *          If the read value has the ZCD_STARTOPT_DEFAULT_NETWORK_STATE
    700           *          bit set return the ZDO_INITDEV_NEW_NETWORK_STATE.
    701           *
    702           * @param   none
    703           *
    704           * @return  ZDO_INITDEV_NEW_NETWORK_STATE
    705           *          or ZDO_INITDEV_RESTORED_NETWORK_STATE based on whether or
    706           *          not ZCD_STARTOPT_DEFAULT_NETWORK_STATE bit is set in
    707           *          ZCD_NV_STARTUP_OPTION
    708           */

   \                                 In  segment BANKED_CODE, align 1, keep-with-next
    709          uint8 ZDApp_ReadNetworkRestoreState( void )
   \                     ZDApp_ReadNetworkRestoreState:
    710          {
   \   000000   74F7         MOV       A,#-0x9
   \   000002   12....       LCALL     ?BANKED_ENTER_XDATA
   \   000005                ; Saved register size: 9
   \   000005                ; Auto size: 0
    711            uint8 networkStateNV = ZDO_INITDEV_RESTORED_NETWORK_STATE;
   \   000005   7E00         MOV       R6,#0x0
    712          
    713            // Look for the New Network State option.
    714            if ( zgReadStartupOptions() & ZCD_STARTOPT_DEFAULT_NETWORK_STATE )
   \   000007                ; Setup parameters for call to function zgReadStartupOptions
   \   000007   12....       LCALL     `??zgReadStartupOptions::?relay`; Banked call to: zgReadStartupOptions
   \   00000A   E9           MOV       A,R1
   \   00000B   F8           MOV       R0,A
   \   00000C   A2E1         MOV       C,0xE0 /* A   */.1
   \   00000E   5002         JNC       ??ZDApp_ReadNetworkRestoreState_0
    715            {
    716              networkStateNV = ZDO_INITDEV_NEW_NETWORK_STATE;
   \   000010   7E01         MOV       R6,#0x1
    717            }
    718          
    719            return ( networkStateNV );
   \                     ??ZDApp_ReadNetworkRestoreState_0:
   \   000012   EE           MOV       A,R6
   \   000013   F9           MOV       R1,A
   \   000014   02....       LJMP      ??Subroutine51_0 & 0xFFFF
    720          }
    721          
    722          /*********************************************************************
    723           * @fn      ZDAppDetermineDeviceType()
    724           *
    725           * @brief   Determines the type of device to start.
    726           *
    727           *          Looks at zgDeviceLogicalType and determines what type of
    728           *          device to start.  The types are:
    729           *            ZG_DEVICETYPE_COORDINATOR
    730           *            ZG_DEVICETYPE_ROUTER
    731           *            ZG_DEVICETYPE_ENDDEVICE
    732           *
    733           * @param   none
    734           *
    735           * @return  none
    736           */

   \                                 In  segment BANKED_CODE, align 1, keep-with-next
    737          void ZDAppDetermineDeviceType( void )
   \                     ZDAppDetermineDeviceType:
    738          {
   \   000000   C082         PUSH      DPL
   \   000002   C083         PUSH      DPH
   \   000004                ; Saved register size: 2
   \   000004                ; Auto size: 0
    739            if ( zgDeviceLogicalType == ZG_DEVICETYPE_COORDINATOR )
   \   000004   90....       MOV       DPTR,#zgDeviceLogicalType
   \   000007   E0           MOVX      A,@DPTR
   \   000008   700E         JNZ       ??ZDAppDetermineDeviceType_0
    740            {
    741              devStartMode = MODE_HARD;     // Start as a coordinator
   \   00000A   90....       MOV       DPTR,#devStartMode
   \   00000D   7402         MOV       A,#0x2
   \   00000F   F0           MOVX      @DPTR,A
    742              ZDO_Config_Node_Descriptor.LogicalType = NODETYPE_COORDINATOR;
   \   000010   90....       MOV       DPTR,#ZDO_Config_Node_Descriptor
   \   000013   E0           MOVX      A,@DPTR
   \   000014   54F8         ANL       A,#0xf8
   \   000016   802E         SJMP      ??ZDAppDetermineDeviceType_1
    743            }
    744            else
    745            {
    746              if ( zgDeviceLogicalType == ZG_DEVICETYPE_ROUTER  )
   \                     ??ZDAppDetermineDeviceType_0:
   \   000018   6401         XRL       A,#0x1
   \   00001A   700A         JNZ       ??ZDAppDetermineDeviceType_2
    747                ZDO_Config_Node_Descriptor.LogicalType = NODETYPE_ROUTER;
   \   00001C   90....       MOV       DPTR,#ZDO_Config_Node_Descriptor
   \   00001F   E0           MOVX      A,@DPTR
   \   000020   54F8         ANL       A,#0xf8
   \   000022   4401         ORL       A,#0x1
   \   000024   800D         SJMP      ??ZDAppDetermineDeviceType_3
    748              else if ( zgDeviceLogicalType == ZG_DEVICETYPE_ENDDEVICE )
   \                     ??ZDAppDetermineDeviceType_2:
   \   000026   E0           MOVX      A,@DPTR
   \   000027   6402         XRL       A,#0x2
   \   000029   7009         JNZ       ??ZDAppDetermineDeviceType_4
    749                ZDO_Config_Node_Descriptor.LogicalType = NODETYPE_DEVICE;
   \   00002B   90....       MOV       DPTR,#ZDO_Config_Node_Descriptor
   \   00002E   E0           MOVX      A,@DPTR
   \   00002F   54F8         ANL       A,#0xf8
   \   000031   4402         ORL       A,#0x2
   \                     ??ZDAppDetermineDeviceType_3:
   \   000033   F0           MOVX      @DPTR,A
    750          
    751              // If AIB_apsUseExtendedPANID is set to a non-zero value by commissioning
    752              // The device shall do rejoin the network. Otherwise, do normal join
    753              if ( nwk_ExtPANIDValid( AIB_apsUseExtendedPANID ) == false )
   \                     ??ZDAppDetermineDeviceType_4:
   \   000034                ; Setup parameters for call to function nwk_ExtPANIDValid
   \   000034   7A..         MOV       R2,#AIB_apsUseExtendedPANID & 0xff
   \   000036   7B..         MOV       R3,#(AIB_apsUseExtendedPANID >> 8) & 0xff
   \   000038   12....       LCALL     `??nwk_ExtPANIDValid::?relay`; Banked call to: nwk_ExtPANIDValid
   \   00003B   E9           MOV       A,R1
   \   00003C   90....       MOV       DPTR,#devStartMode
   \   00003F   7003         JNZ       ??ZDAppDetermineDeviceType_5
    754              {
    755                devStartMode = MODE_JOIN;     // Assume joining
   \   000041   E4           CLR       A
   \   000042   8002         SJMP      ??ZDAppDetermineDeviceType_1
    756              }
    757              else
    758              {
    759                devStartMode = MODE_REJOIN;
   \                     ??ZDAppDetermineDeviceType_5:
   \   000044   7403         MOV       A,#0x3
   \                     ??ZDAppDetermineDeviceType_1:
   \   000046   F0           MOVX      @DPTR,A
    760              }
    761            }
    762          }
   \   000047   02....       LJMP      ?Subroutine3 & 0xFFFF

   \                                 In  segment BANKED_CODE, align 1, keep-with-next
   \                     ?Subroutine3:
   \   000000   D083         POP       DPH
   \   000002   D082         POP       DPL
   \   000004   02....       LJMP      ?BRET
    763          
    764          /*********************************************************************
    765           * @fn      ZDApp_NetworkStartEvt()
    766           *
    767           * @brief   Process the Network Start Event
    768           *
    769           * @param   none
    770           *
    771           * @return  none
    772           */

   \                                 In  segment BANKED_CODE, align 1, keep-with-next
    773          void ZDApp_NetworkStartEvt( void )
   \                     ZDApp_NetworkStartEvt:
    774          {
   \   000000   C082         PUSH      DPL
   \   000002   C083         PUSH      DPH
   \   000004                ; Saved register size: 2
   \   000004                ; Auto size: 0
    775            if ( nwkStatus == ZSuccess )
   \   000004   90....       MOV       DPTR,#nwkStatus
   \   000007   E0           MOVX      A,@DPTR
   \   000008   7012         JNZ       ??ZDApp_NetworkStartEvt_0
    776            {
    777              // Successfully started a ZigBee network
    778              if ( devState == DEV_COORD_STARTING )
   \   00000A   90....       MOV       DPTR,#devState
   \   00000D   E0           MOVX      A,@DPTR
   \   00000E   6408         XRL       A,#0x8
   \   000010   7003         JNZ       ??ZDApp_NetworkStartEvt_1
    779              {
    780                devState = DEV_ZB_COORD;
   \   000012   7409         MOV       A,#0x9
   \   000014   F0           MOVX      @DPTR,A
    781              }
    782          
    783              osal_pwrmgr_device( PWRMGR_ALWAYS_ON );
   \                     ??ZDApp_NetworkStartEvt_1:
   \   000015                ; Setup parameters for call to function osal_pwrmgr_device
   \   000015   7900         MOV       R1,#0x0
   \   000017   12....       LCALL     `??osal_pwrmgr_device::?relay`; Banked call to: osal_pwrmgr_device
    784              osal_set_event( ZDAppTaskID, ZDO_STATE_CHANGE_EVT );
   \   00001A                ; Setup parameters for call to function osal_set_event
   \   00001A   802E         SJMP      ??ZDApp_NetworkStartEvt_2
    785            }
    786            else
    787            {
    788              // Try again with a higher energy threshold !!
    789              if ( ( NLME_GetEnergyThreshold() + ENERGY_SCAN_INCREMENT ) < 0xff )
   \                     ??ZDApp_NetworkStartEvt_0:
   \   00001C                ; Setup parameters for call to function NLME_GetEnergyThreshold
   \   00001C   12....       LCALL     `??NLME_GetEnergyThreshold::?relay`; Banked call to: NLME_GetEnergyThreshold
   \   00001F   E9           MOV       A,R1
   \   000020   7900         MOV       R1,#0x0
   \   000022   2410         ADD       A,#0x10
   \   000024   5001         JNC       ??ZDApp_NetworkStartEvt_3
   \   000026   09           INC       R1
   \                     ??ZDApp_NetworkStartEvt_3:
   \   000027   C3           CLR       C
   \   000028   94FF         SUBB      A,#-0x1
   \   00002A   E9           MOV       A,R1
   \   00002B   9400         SUBB      A,#0x0
   \   00002D   A2D2         MOV       C,0xD0 /* PSW */.2
   \   00002F   65D0         XRL       A,PSW
   \   000031   33           RLC       A
   \   000032   5010         JNC       ??ZDApp_NetworkStartEvt_4
    790              {
    791                NLME_SetEnergyThreshold( (uint8)(NLME_GetEnergyThreshold() + ENERGY_SCAN_INCREMENT) );
   \   000034                ; Setup parameters for call to function NLME_GetEnergyThreshold
   \   000034   12....       LCALL     `??NLME_GetEnergyThreshold::?relay`; Banked call to: NLME_GetEnergyThreshold
   \   000037   E9           MOV       A,R1
   \   000038   F8           MOV       R0,A
   \   000039                ; Setup parameters for call to function NLME_SetEnergyThreshold
   \   000039   7410         MOV       A,#0x10
   \   00003B   29           ADD       A,R1
   \   00003C   F9           MOV       R1,A
   \   00003D   12....       LCALL     `??NLME_SetEnergyThreshold::?relay`; Banked call to: NLME_SetEnergyThreshold
    792                osal_set_event( ZDAppTaskID, ZDO_NETWORK_INIT );
   \   000040                ; Setup parameters for call to function osal_set_event
   \   000040   7A01         MOV       R2,#0x1
   \   000042   8008         SJMP      ??ZDApp_NetworkStartEvt_5
    793              }
    794              else
    795              {
    796                // Failed to start network. Enter a dormant state (until user intervenes)
    797                devState = DEV_INIT;
   \                     ??ZDApp_NetworkStartEvt_4:
   \   000044   90....       MOV       DPTR,#devState
   \   000047   7401         MOV       A,#0x1
   \   000049   F0           MOVX      @DPTR,A
    798                osal_set_event( ZDAppTaskID, ZDO_STATE_CHANGE_EVT );
   \   00004A                ; Setup parameters for call to function osal_set_event
   \                     ??ZDApp_NetworkStartEvt_2:
   \   00004A   7A10         MOV       R2,#0x10
    799              }
    800            }
   \                     ??ZDApp_NetworkStartEvt_5:
   \   00004C   12....       LCALL     ??Subroutine42_0 & 0xFFFF
    801          }
   \                     ??CrossCallReturnLabel_63:
   \   00004F   02....       LJMP      ?Subroutine3 & 0xFFFF
    802          
    803          /*********************************************************************
    804           * @fn      ZDApp_DeviceAuthEvt()
    805           *
    806           * @brief   Process the Device Authentic Event
    807           *
    808           * @param   none
    809           *
    810           * @return  none
    811           */

   \                                 In  segment BANKED_CODE, align 1, keep-with-next
    812          void ZDApp_DeviceAuthEvt( void )
   \                     ZDApp_DeviceAuthEvt:
    813          {
   \   000000   C082         PUSH      DPL
   \   000002   C083         PUSH      DPH
   \   000004                ; Saved register size: 2
   \   000004                ; Auto size: 0
    814            // received authentication from trust center
    815            if ( devState == DEV_END_DEVICE_UNAUTH )
   \   000004   90....       MOV       DPTR,#devState
   \   000007   E0           MOVX      A,@DPTR
   \   000008   6405         XRL       A,#0x5
   \   00000A   702B         JNZ       ??ZDApp_DeviceAuthEvt_0
    816            {
    817              // Stop the reset timer so it doesn't reset
    818              ZDApp_ResetTimerCancel();
   \   00000C                ; Setup parameters for call to function ZDApp_ResetTimerCancel
   \   00000C   12....       LCALL     `??ZDApp_ResetTimerCancel::?relay`; Banked call to: ZDApp_ResetTimerCancel
    819          
    820              devState = DEV_END_DEVICE;
   \   00000F   12....       LCALL     ?Subroutine8 & 0xFFFF
    821              osal_set_event( ZDAppTaskID, ZDO_STATE_CHANGE_EVT );
    822          
    823              // Set the Power Manager Device
    824          #if defined ( POWER_SAVING )
    825              osal_pwrmgr_device( PWRMGR_BATTERY );
    826          #endif
    827          
    828              if ( ZSTACK_ROUTER_BUILD )
    829              {
    830                if ( ZDO_Config_Node_Descriptor.LogicalType != NODETYPE_DEVICE )
   \                     ??CrossCallReturnLabel_66:
   \   000012   12....       LCALL     ?Subroutine20 & 0xFFFF
   \                     ??CrossCallReturnLabel_15:
   \   000015   6009         JZ        ??ZDApp_DeviceAuthEvt_1
    831                {
    832                  // NOTE: first two parameters are not used, see NLMEDE.h for details
    833                  NLME_StartRouterRequest( 0, 0, false );
   \   000017                ; Setup parameters for call to function NLME_StartRouterRequest
   \   000017   7B00         MOV       R3,#0x0
   \   000019   7A00         MOV       R2,#0x0
   \   00001B   7900         MOV       R1,#0x0
   \   00001D   12....       LCALL     `??NLME_StartRouterRequest::?relay`; Banked call to: NLME_StartRouterRequest
    834                }
    835              }
    836          
    837              // Notify to save info into NV
    838              ZDApp_NVUpdate();
    839          
    840              // Save off the security
    841              ZDApp_SaveNwkKey();
   \                     ??ZDApp_DeviceAuthEvt_1:
   \   000020                ; Setup parameters for call to function ZDApp_SaveNwkKey
   \   000020   12....       LCALL     `??ZDApp_SaveNwkKey::?relay`; Banked call to: ZDApp_SaveNwkKey
    842          
    843              ZDApp_AnnounceNewAddress();
   \   000023                ; Setup parameters for call to function ZDApp_AnnounceNewAddress
   \   000023   12....       LCALL     `??ZDApp_AnnounceNewAddress::?relay`; Banked call to: ZDApp_AnnounceNewAddress
    844          
    845              if ( (ZDO_Config_Node_Descriptor.CapabilityFlags & CAPINFO_RCVR_ON_IDLE) == 0 )
   \   000026   90....       MOV       DPTR,#ZDO_Config_Node_Descriptor + 2
   \   000029   E0           MOVX      A,@DPTR
   \   00002A   A2E3         MOV       C,0xE0 /* A   */.3
   \   00002C   4009         JC        ??ZDApp_DeviceAuthEvt_0
    846              {
    847                NLME_SetPollRate( ZDApp_SavedPollRate );
   \   00002E                ; Setup parameters for call to function NLME_SetPollRate
   \   00002E   90....       MOV       DPTR,#ZDApp_SavedPollRate
   \   000031   12....       LCALL     ??Subroutine46_0 & 0xFFFF
    848              }
    849            }
   \                     ??CrossCallReturnLabel_69:
   \   000034   12....       LCALL     `??NLME_SetPollRate::?relay`; Banked call to: NLME_SetPollRate
    850            else
    851            {
    852              ZDApp_NVUpdate();
    853            }
    854          }
   \                     ??ZDApp_DeviceAuthEvt_0:
   \   000037   02....       LJMP      ?Subroutine3 & 0xFFFF

   \                                 In  segment BANKED_CODE, align 1, keep-with-next
   \                     ?Subroutine8:
   \   000000   90....       MOV       DPTR,#devState
   \   000003   7406         MOV       A,#0x6
   \   000005                REQUIRE ??Subroutine45_0
   \   000005                ; // Fall through to label ??Subroutine45_0

   \                                 In  segment BANKED_CODE, align 1, keep-with-next
   \                     ??Subroutine46_0:
   \   000000   E0           MOVX      A,@DPTR
   \   000001   FA           MOV       R2,A
   \   000002   A3           INC       DPTR
   \   000003   E0           MOVX      A,@DPTR
   \   000004   FB           MOV       R3,A
   \   000005   22           RET

   \                                 In  segment BANKED_CODE, align 1, keep-with-next
   \                     ?Subroutine20:
   \   000000   90....       MOV       DPTR,#ZDO_Config_Node_Descriptor
   \   000003   E0           MOVX      A,@DPTR
   \   000004   5407         ANL       A,#0x7
   \   000006   6402         XRL       A,#0x2
   \   000008   22           RET
    855          
    856          /*********************************************************************
    857           * @fn      ZDApp_SaveNetworkStateEvt()
    858           *
    859           * @brief   Process the Save the Network State Event
    860           *
    861           * @param   none
    862           *
    863           * @return  none
    864           */

   \                                 In  segment BANKED_CODE, align 1, keep-with-next
    865          void ZDApp_SaveNetworkStateEvt( void )
   \                     ZDApp_SaveNetworkStateEvt:
    866          {
   \   000000                ; Saved register size: 0
   \   000000                ; Auto size: 0
    867          #if defined ( NV_RESTORE )
    868           #if defined ( NV_TURN_OFF_RADIO )
    869            // Turn off the radio's receiver during an NV update
    870            uint8 RxOnIdle;
    871            uint8 x = false;
    872            ZMacGetReq( ZMacRxOnIdle, &RxOnIdle );
    873            ZMacSetReq( ZMacRxOnIdle, &x );
    874           #endif
    875          
    876            // Update the Network State in NV
    877            NLME_UpdateNV( NWK_NV_NIB_ENABLE        |
    878                           NWK_NV_DEVICELIST_ENABLE |
    879                           NWK_NV_BINDING_ENABLE    |
    880                           NWK_NV_ADDRMGR_ENABLE );
    881          
    882            // Reset the NV startup option to resume from NV by
    883            // clearing the "New" join option.
    884            zgWriteStartupOptions( FALSE, ZCD_STARTOPT_DEFAULT_NETWORK_STATE );
    885          
    886           #if defined ( NV_TURN_OFF_RADIO )
    887            ZMacSetReq( ZMacRxOnIdle, &RxOnIdle );
    888           #endif
    889          #endif  // NV_RESTORE
    890          }
   \   000000   02....       LJMP      ?BRET
    891          
    892          /*********************************************************************
    893           * @fn      ZDApp_RestoreNetworkState()
    894           *
    895           * @brief   This function will restore the network state of the
    896           *          device if the network state is stored in NV.
    897           *
    898           * @param   none
    899           *
    900           * @return
    901           *    ZDO_INITDEV_RESTORED_NETWORK_STATE  - The device's network state was
    902           *          restored.
    903           *    ZDO_INITDEV_NEW_NETWORK_STATE - The network state was not used.
    904           *          This could mean that zgStartupOption said to not restore, or
    905           *          it could mean that there was no network state to restore.
    906           *
    907           */

   \                                 In  segment BANKED_CODE, align 1, keep-with-next
    908          uint8 ZDApp_RestoreNetworkState( void )
   \                     ZDApp_RestoreNetworkState:
    909          {
   \   000000   74F7         MOV       A,#-0x9
   \   000002   12....       LCALL     ?BANKED_ENTER_XDATA
   \   000005                ; Saved register size: 9
   \   000005                ; Auto size: 0
    910            uint8 nvStat;
    911          
    912            // Initialize NWK NV items
    913            nvStat = NLME_InitNV();
   \   000005                ; Setup parameters for call to function NLME_InitNV
   \   000005   12....       LCALL     `??NLME_InitNV::?relay`; Banked call to: NLME_InitNV
   \   000008   E9           MOV       A,R1
   \   000009   FE           MOV       R6,A
    914          
    915            if ( nvStat != NV_OPER_FAILED )
   \   00000A   740A         MOV       A,#0xa
   \   00000C   6E           XRL       A,R6
   \   00000D   6033         JZ        ??ZDApp_RestoreNetworkState_0
    916            {
    917              if ( NLME_RestoreFromNV() )
   \   00000F                ; Setup parameters for call to function NLME_RestoreFromNV
   \   00000F   12....       LCALL     `??NLME_RestoreFromNV::?relay`; Banked call to: NLME_RestoreFromNV
   \   000012   E9           MOV       A,R1
   \   000013   602D         JZ        ??ZDApp_RestoreNetworkState_0
    918              {
    919                // Are we a coordinator
    920                ZDAppNwkAddr.addr.shortAddr = NLME_GetShortAddr();
   \   000015                ; Setup parameters for call to function NLME_GetShortAddr
   \   000015   12....       LCALL     `??NLME_GetShortAddr::?relay`; Banked call to: NLME_GetShortAddr
   \   000018   90....       MOV       DPTR,#ZDAppNwkAddr
   \   00001B   12....       LCALL     ??Subroutine57_0 & 0xFFFF
    921                if ( ZDAppNwkAddr.addr.shortAddr == 0 )
   \                     ??CrossCallReturnLabel_114:
   \   00001E   F9           MOV       R1,A
   \   00001F   EA           MOV       A,R2
   \   000020   49           ORL       A,R1
   \   000021   7007         JNZ       ??ZDApp_RestoreNetworkState_1
    922                  ZDO_Config_Node_Descriptor.LogicalType = NODETYPE_COORDINATOR;
   \   000023   90....       MOV       DPTR,#ZDO_Config_Node_Descriptor
   \   000026   E0           MOVX      A,@DPTR
   \   000027   54F8         ANL       A,#0xf8
   \   000029   F0           MOVX      @DPTR,A
    923                devStartMode = MODE_RESUME;
   \                     ??ZDApp_RestoreNetworkState_1:
   \   00002A   90....       MOV       DPTR,#devStartMode
   \   00002D   7401         MOV       A,#0x1
   \   00002F   F0           MOVX      @DPTR,A
    924                osal_cpyExtAddr( ZDO_UseExtendedPANID, _NIB.extendedPANID );
   \   000030                ; Setup parameters for call to function sAddrExtCpy
   \   000030   7C..         MOV       R4,#(_NIB + 53) & 0xff
   \   000032   7D..         MOV       R5,#((_NIB + 53) >> 8) & 0xff
   \   000034   7A..         MOV       R2,#ZDO_UseExtendedPANID & 0xff
   \   000036   7B..         MOV       R3,#(ZDO_UseExtendedPANID >> 8) & 0xff
   \   000038   12....       LCALL     `??sAddrExtCpy::?relay`; Banked call to: sAddrExtCpy
    925              }
    926              else
    927                nvStat = NV_ITEM_UNINIT;
    928          
    929              if ( ZG_SECURE_ENABLED )
    930              {
    931                nwkFrameCounterChanges = 0;
    932          
    933                if ( ZG_BUILD_COORDINATOR_TYPE && ZG_DEVICE_COORDINATOR_TYPE )
    934                {
    935                  ZDApp_RestoreNwkKey();
    936                }
    937              }
    938          
    939              // The default for RxOnWhenIdle is true for Routers and false for end devices
    940              // [setup in the NLME_RestoreFromNV()].  Change it here if you want something
    941              // other than default.
    942            }
    943          
    944            if ( nvStat == ZSUCCESS )
   \   00003B   EE           MOV       A,R6
   \   00003C   7004         JNZ       ??ZDApp_RestoreNetworkState_0
    945              return ( ZDO_INITDEV_RESTORED_NETWORK_STATE );
   \   00003E   7900         MOV       R1,#0x0
   \   000040   8002         SJMP      ??ZDApp_RestoreNetworkState_2
    946            else
    947              return ( ZDO_INITDEV_NEW_NETWORK_STATE );
   \                     ??ZDApp_RestoreNetworkState_0:
   \   000042   7901         MOV       R1,#0x1
   \                     ??ZDApp_RestoreNetworkState_2:
   \   000044   02....       LJMP      ??Subroutine51_0 & 0xFFFF
    948          }
    949          
    950          /*********************************************************************
    951           * @fn      ZDApp_InitUserDesc()
    952           *
    953           * @brief   Initialize the User Descriptor, the descriptor is read from NV
    954           *          when needed.  If you want to initialize the User descriptor to
    955           *          something other than all zero, do it here.
    956           *
    957           * @param   none
    958           *
    959           * @return  none
    960           */

   \                                 In  segment BANKED_CODE, align 1, keep-with-next
    961          void ZDApp_InitUserDesc( void )
   \                     ZDApp_InitUserDesc:
    962          {
   \   000000                REQUIRE ?V0
   \   000000                REQUIRE ?V1
   \   000000   74F6         MOV       A,#-0xa
   \   000002   12....       LCALL     ?BANKED_ENTER_XDATA
   \   000005                ; Saved register size: 10
   \   000005                ; Auto size: 17
   \   000005   74EF         MOV       A,#-0x11
   \   000007   12....       LCALL     ?ALLOC_XSTACK8
    963            UserDescriptorFormat_t ZDO_DefaultUserDescriptor;
    964          
    965            // Initialize the User Descriptor, the descriptor is read from NV
    966            // when needed.  If you want to initialize the User descriptor to something
    967            // other than all zero, do it here.
    968            osal_memset( &ZDO_DefaultUserDescriptor, 0, sizeof( UserDescriptorFormat_t ) );
   \   00000A                ; Setup parameters for call to function osal_memset
   \   00000A   7C11         MOV       R4,#0x11
   \   00000C   12....       LCALL     ?Subroutine26 & 0xFFFF
    969            if ( ZSUCCESS == osal_nv_item_init( ZCD_NV_USERDESC,
    970                   sizeof(UserDescriptorFormat_t), (void*)&ZDO_DefaultUserDescriptor ) )
   \                     ??CrossCallReturnLabel_28:
   \   00000F   12....       LCALL     ?PUSH_XSTACK_I_TWO
   \   000012   7C11         MOV       R4,#0x11
   \   000014   7D00         MOV       R5,#0x0
   \   000016   7A81         MOV       R2,#-0x7f
   \   000018   7B00         MOV       R3,#0x0
   \   00001A   12....       LCALL     `??osal_nv_item_init::?relay`; Banked call to: osal_nv_item_init
   \   00001D   7402         MOV       A,#0x2
   \   00001F   12....       LCALL     ?DEALLOC_XSTACK8
   \   000022   E9           MOV       A,R1
   \   000023   702F         JNZ       ??ZDApp_InitUserDesc_0
    971            {
    972              if ( ZSUCCESS == osal_nv_read( ZCD_NV_USERDESC, 0,
    973                   sizeof(UserDescriptorFormat_t), (void*)&ZDO_DefaultUserDescriptor ) )
   \   000025                ; Setup parameters for call to function osal_nv_read
   \   000025   78..         MOV       R0,#?V0
   \   000027   12....       LCALL     ?PUSH_XSTACK_I_TWO
   \   00002A   75..11       MOV       ?V0,#0x11
   \   00002D   75..00       MOV       ?V1,#0x0
   \   000030   78..         MOV       R0,#?V0
   \   000032   12....       LCALL     ?PUSH_XSTACK_I_TWO
   \   000035   7C00         MOV       R4,#0x0
   \   000037   7D00         MOV       R5,#0x0
   \   000039   7A81         MOV       R2,#-0x7f
   \   00003B   12....       LCALL     ?Subroutine28 & 0xFFFF
   \                     ??CrossCallReturnLabel_32:
   \   00003E   12....       LCALL     ?DEALLOC_XSTACK8
   \   000041   E9           MOV       A,R1
   \   000042   7010         JNZ       ??ZDApp_InitUserDesc_0
    974              {
    975                if ( ZDO_DefaultUserDescriptor.len != 0 )
   \   000044   85..82       MOV       DPL,?XSP + 0
   \   000047   85..83       MOV       DPH,?XSP + 1
   \   00004A   E0           MOVX      A,@DPTR
   \   00004B   6007         JZ        ??ZDApp_InitUserDesc_0
    976                {
    977                  ZDO_Config_Node_Descriptor.UserDescAvail = TRUE;
   \   00004D   90....       MOV       DPTR,#ZDO_Config_Node_Descriptor
   \   000050   E0           MOVX      A,@DPTR
   \   000051   D2E4         SETB      0xE0 /* A   */.4
   \   000053   F0           MOVX      @DPTR,A
    978                }
    979              }
    980            }
    981          }
   \                     ??ZDApp_InitUserDesc_0:
   \   000054   7411         MOV       A,#0x11
   \   000056   02....       LJMP      ??Subroutine48_0 & 0xFFFF

   \                                 In  segment BANKED_CODE, align 1, keep-with-next
   \                     ?Subroutine26:
   \   000000   7D00         MOV       R5,#0x0
   \   000002   7900         MOV       R1,#0x0
   \   000004   AA..         MOV       R2,?XSP + 0
   \   000006   AB..         MOV       R3,?XSP + 1
   \   000008   12....       LCALL     `??osal_memset::?relay`; Banked call to: osal_memset
   \   00000B                ; Setup parameters for call to function osal_nv_item_init
   \   00000B                ; Setup parameters for call to function osal_nv_write
   \   00000B   A8..         MOV       R0,?XSP + 0
   \   00000D   A9..         MOV       R1,?XSP + 1
   \   00000F   88..         MOV       ?V0,R0
   \   000011   89..         MOV       ?V1,R1
   \   000013   78..         MOV       R0,#?V0
   \   000015   22           RET

   \                                 In  segment BANKED_CODE, align 1, keep-with-next
   \                     ?Subroutine28:
   \   000000   7B00         MOV       R3,#0x0
   \   000002   12....       LCALL     `??osal_nv_read::?relay`; Banked call to: osal_nv_read
   \   000005   7404         MOV       A,#0x4
   \   000007   22           RET
    982          
    983          /*********************************************************************
    984           * @fn      ZDAppCheckForHoldKey()
    985           *
    986           * @brief   Check for key to set the device into Hold Auto Start
    987           *
    988           * @param   none
    989           *
    990           * @return  none
    991           */

   \                                 In  segment BANKED_CODE, align 1, keep-with-next
    992          void ZDAppCheckForHoldKey( void )
   \                     ZDAppCheckForHoldKey:
    993          {
   \   000000                ; Saved register size: 0
   \   000000                ; Auto size: 0
    994          #if (defined HAL_KEY) && (HAL_KEY == TRUE)
    995            // Get Keypad directly to see if a HOLD_START is needed.
    996            // Hold down the SW_BYPASS_START key (see OnBoard.h)
    997            // while booting to avoid starting up the device.
    998            if ( HalKeyRead () == SW_BYPASS_START)
    999            {
   1000              // Change the device state to HOLD on start up
   1001              devState = DEV_HOLD;
   1002            }
   1003          #endif // HAL_KEY
   1004          }
   \   000000   02....       LJMP      ?BRET
   1005          
   1006          /*********************************************************************
   1007           * @fn      ZDApp_ProcessOSALMsg()
   1008           *
   1009           * @brief   Process the incoming task message.
   1010           *
   1011           * @param   msgPtr - message to process
   1012           *
   1013           * @return  none
   1014           */

   \                                 In  segment BANKED_CODE, align 1, keep-with-next
   1015          void ZDApp_ProcessOSALMsg( osal_event_hdr_t *msgPtr )
   \                     ZDApp_ProcessOSALMsg:
   1016          {
   \   000000   C082         PUSH      DPL
   \   000002   C083         PUSH      DPH
   \   000004                ; Saved register size: 2
   \   000004                ; Auto size: 0
   1017            // Data Confirmation message fields
   1018            uint8 sentEP;       // This should always be 0
   1019            uint8 sentStatus;
   1020            afDataConfirm_t *afDataConfirm;
   1021            uint8 tmp;
   1022          
   1023            switch ( msgPtr->event )
   \   000004   8A82         MOV       DPL,R2
   \   000006   8B83         MOV       DPH,R3
   \   000008   E0           MOVX      A,@DPTR
   \   000009   24E6         ADD       A,#-0x1a
   \   00000B   600A         JZ        ??ZDApp_ProcessOSALMsg_0
   \   00000D   2447         ADD       A,#0x47
   \   00000F   600B         JZ        ??ZDApp_ProcessOSALMsg_1
   \   000011   24D6         ADD       A,#-0x2a
   \   000013   600C         JZ        ??ZDApp_ProcessOSALMsg_2
   \   000015   8018         SJMP      ??ZDApp_ProcessOSALMsg_3
   1024            {
   1025              // Incoming ZDO Message
   1026              case AF_INCOMING_MSG_CMD:
   1027                ZDP_IncomingData( (afIncomingMSGPacket_t *)msgPtr );
   \                     ??ZDApp_ProcessOSALMsg_0:
   \   000017                ; Setup parameters for call to function ZDP_IncomingData
   \   000017   12....       LCALL     `??ZDP_IncomingData::?relay`; Banked call to: ZDP_IncomingData
   1028                break;
   \   00001A   8013         SJMP      ??ZDApp_ProcessOSALMsg_3
   1029          
   1030              case ZDO_CB_MSG:
   1031                ZDApp_ProcessMsgCBs( (zdoIncomingMsg_t *)msgPtr );
   \                     ??ZDApp_ProcessOSALMsg_1:
   \   00001C                ; Setup parameters for call to function ZDApp_ProcessMsgCBs
   \   00001C   12....       LCALL     `??ZDApp_ProcessMsgCBs::?relay`; Banked call to: ZDApp_ProcessMsgCBs
   1032                break;
   \   00001F   800E         SJMP      ??ZDApp_ProcessOSALMsg_3
   1033          
   1034              case AF_DATA_CONFIRM_CMD:
   1035                // This message is received as a confirmation of a data packet sent.
   1036                // The status is of ZStatus_t type [defined in NLMEDE.h]
   1037                // The message fields are defined in AF.h
   1038                afDataConfirm = (afDataConfirm_t *)msgPtr;
   1039                sentEP = afDataConfirm->endpoint;
   1040                sentStatus = afDataConfirm->hdr.status;
   1041          
   1042                // Action taken when confirmation is received.
   1043          #if defined ( ZIGBEE_FREQ_AGILITY )
   1044                if ( pZDNwkMgr_ProcessDataConfirm )
   \                     ??ZDApp_ProcessOSALMsg_2:
   \   000021   90....       MOV       DPTR,#pZDNwkMgr_ProcessDataConfirm
   \   000024   12....       LCALL     ?Subroutine11 & 0xFFFF
   \                     ??CrossCallReturnLabel_2:
   \   000027   6006         JZ        ??ZDApp_ProcessOSALMsg_3
   1045                  pZDNwkMgr_ProcessDataConfirm( afDataConfirm );
   \   000029                ; Setup parameters for indirect call
   \   000029   12....       LCALL     ??Subroutine55_0 & 0xFFFF
   1046          #endif
   1047                (void)sentEP;
   1048                (void)sentStatus;
   1049                break;
   1050          
   1051              case ZDO_NWK_DISC_CNF:
   1052                if (devState != DEV_NWK_DISC)
   1053                  break;
   1054          
   1055                if ( ZG_BUILD_JOINING_TYPE && ZG_DEVICE_JOINING_TYPE )
   1056                {
   1057                  // Process the network discovery scan results and choose a parent
   1058                  // device to join/rejoin itself
   1059                  networkDesc_t *pChosenNwk;
   1060                  if ( ( (pChosenNwk = ZDApp_NwkDescListProcessing()) != NULL ) && (zdoDiscCounter > NUM_DISC_ATTEMPTS) )
   1061                  {
   1062                    if ( devStartMode == MODE_JOIN )
   1063                    {
   1064                      devState = DEV_NWK_JOINING;
   1065          
   1066                      ZDApp_NodeProfileSync( pChosenNwk->stackProfile);
   1067          
   1068                      if ( NLME_JoinRequest( pChosenNwk->extendedPANID, pChosenNwk->panId,
   1069                                            pChosenNwk->logicalChannel,
   1070                                            ZDO_Config_Node_Descriptor.CapabilityFlags,
   1071                                            pChosenNwk->chosenRouter, pChosenNwk->chosenRouterDepth ) != ZSuccess )
   1072                      {
   1073                        ZDApp_NetworkInit( (uint16)(NWK_START_DELAY
   1074                                                    + ((uint16)(osal_rand()& EXTENDED_JOINING_RANDOM_MASK))) );
   1075                      }
   1076                    } // if ( devStartMode == MODE_JOIN )
   1077                    else if ( devStartMode == MODE_REJOIN )
   1078                    {
   1079                      devState = DEV_NWK_REJOIN;
   1080          
   1081                      // Before trying to do rejoin, check if the device has a valid short address
   1082                      // If not, generate a random short address for itself
   1083                      if ( _NIB.nwkDevAddress == INVALID_NODE_ADDR )
   1084                      {
   1085                        _NIB.nwkDevAddress = osal_rand();
   1086                        ZMacSetReq( ZMacShortAddress, (byte*)&_NIB.nwkDevAddress );
   1087                      }
   1088          
   1089                      if ( ZG_SECURE_ENABLED )
   1090                      {
   1091                        ZDApp_RestoreNwkKey();
   1092                      }
   1093          
   1094                      // Check if the device has a valid PanID, if not, set it to the discovered Pan
   1095                      if ( _NIB.nwkPanId == INVALID_PAN_ID )
   1096                      {
   1097                        _NIB.nwkPanId = pChosenNwk->panId;
   1098                        ZMacSetReq( ZMacPanId, (byte*)&(_NIB.nwkPanId) );
   1099                      }
   1100          
   1101                      tmp = true;
   1102                      ZMacSetReq( ZMacRxOnIdle, &tmp ); // Set receiver always on during rejoin
   1103                      if ( NLME_ReJoinRequest( ZDO_UseExtendedPANID, pChosenNwk->logicalChannel) != ZSuccess )
   1104                      {
   1105                        ZDApp_NetworkInit( (uint16)(NWK_START_DELAY
   1106                                                    + ((uint16)(osal_rand()& EXTENDED_JOINING_RANDOM_MASK))) );
   1107                      }
   1108                    } // else if ( devStartMode == MODE_REJOIN )
   1109          
   1110                    if ( ZDO_Config_Node_Descriptor.CapabilityFlags & CAPINFO_RCVR_ON_IDLE )
   1111                    {
   1112                      // The receiver is on, turn network layer polling off.
   1113                      NLME_SetPollRate( 0 );
   1114                      NLME_SetQueuedPollRate( 0 );
   1115                      NLME_SetResponseRate( 0 );
   1116                    }
   1117                    else
   1118                    {
   1119                      if ( (ZG_SECURE_ENABLED) && (devStartMode == MODE_JOIN) )
   1120                      {
   1121                        ZDApp_SavedPollRate = zgPollRate;
   1122                        NLME_SetPollRate( zgRejoinPollRate );
   1123                      }
   1124                    }
   1125                  }
   1126                  else
   1127                  {
   1128                    if ( continueJoining )
   1129                    {
   1130              #if defined ( MANAGED_SCAN )
   1131                      ZDApp_NetworkInit( MANAGEDSCAN_DELAY_BETWEEN_SCANS );
   1132              #else
   1133                      zdoDiscCounter++;
   1134                      ZDApp_NetworkInit( (uint16)(BEACON_REQUEST_DELAY
   1135                            + ((uint16)(osal_rand()& BEACON_REQ_DELAY_MASK))) );
   1136              #endif
   1137                    }
   1138                  }
   1139                }
   1140                break;
   1141          
   1142              case ZDO_NWK_JOIN_IND:
   1143                if ( ZG_BUILD_JOINING_TYPE && ZG_DEVICE_JOINING_TYPE )
   1144                {
   1145                  ZDApp_ProcessNetworkJoin();
   1146                }
   1147                break;
   1148          
   1149              case ZDO_NWK_JOIN_REQ:
   1150                if ( ZG_BUILD_JOINING_TYPE && ZG_DEVICE_JOINING_TYPE )
   1151                {
   1152                  retryCnt = 0;
   1153                  devStartMode = MODE_RESUME;
   1154                  _tmpRejoinState = true;
   1155                  osal_cpyExtAddr( ZDO_UseExtendedPANID, _NIB.extendedPANID );
   1156                  zgDefaultStartingScanDuration = BEACON_ORDER_60_MSEC;
   1157                  ZDApp_NetworkInit( 0 );
   1158                }
   1159                break;
   1160          
   1161              default:
   1162                if ( ZG_SECURE_ENABLED )
   1163                  ZDApp_ProcessSecMsg( msgPtr );
   1164                break;
   1165            }
   \                     ??CrossCallReturnLabel_99:
   \   00002C   12....       LCALL     ?CALL_IND
   1166          
   1167          }
   \                     ??ZDApp_ProcessOSALMsg_3:
   \   00002F   02....       LJMP      ?Subroutine3 & 0xFFFF

   \                                 In  segment BANKED_CODE, align 1, keep-with-next
   \                     ?Subroutine11:
   \   000000   E0           MOVX      A,@DPTR
   \   000001   F8           MOV       R0,A
   \   000002   A3           INC       DPTR
   \   000003   E0           MOVX      A,@DPTR
   \   000004   F9           MOV       R1,A
   \   000005   E8           MOV       A,R0
   \   000006   49           ORL       A,R1
   \   000007   22           RET

   \                                 In  segment BANKED_CODE, align 1, keep-with-next
   \                     ??Subroutine55_0:
   \   000000   E0           MOVX      A,@DPTR
   \   000001   F583         MOV       DPH,A
   \   000003   8882         MOV       DPL,R0
   \   000005   22           RET
   1168          
   1169          /*********************************************************************
   1170           * @fn      ZDApp_ProcessMsgCBs()
   1171           *
   1172           * @brief   Process response messages
   1173           *
   1174           * @param   none
   1175           *
   1176           * @return  none
   1177           */

   \                                 In  segment BANKED_CODE, align 1, keep-with-next
   1178          void ZDApp_ProcessMsgCBs( zdoIncomingMsg_t *inMsg )
   \                     ZDApp_ProcessMsgCBs:
   1179          {
   \   000000                REQUIRE ?V0
   \   000000                REQUIRE ?V1
   \   000000   74F6         MOV       A,#-0xa
   \   000002   12....       LCALL     ?BANKED_ENTER_XDATA
   \   000005                ; Saved register size: 10
   \   000005                ; Auto size: 44
   \   000005   74D4         MOV       A,#-0x2c
   \   000007   12....       LCALL     ?ALLOC_XSTACK8
   \   00000A   EA           MOV       A,R2
   \   00000B   FE           MOV       R6,A
   \   00000C   EB           MOV       A,R3
   \   00000D   FF           MOV       R7,A
   1180            switch ( inMsg->clusterID )
   \   00000E   12....       LCALL     ?Subroutine27 & 0xFFFF
   \                     ??CrossCallReturnLabel_30:
   \   000011   F5..         MOV       ?V1,A
   \   000013   78..         MOV       R0,#?V0
   \   000015   12....       LCALL     ?US_SWITCH_SPARSE
   \                     `?<Jumptable for ZDApp_ProcessMsgCBs>_0`:
   \   000018   0300         DW        3
   \   00001A   2100         DW        33
   \   00001C   2200         DW        34
   \   00001E   ....         DW        ??ZDApp_ProcessMsgCBs_0
   \   000020   0080         DW        32768
   \   000022   0180         DW        32769
   \   000024   ....         DW        ??ZDApp_ProcessMsgCBs_1
   \   000026   2180         DW        32801
   \   000028   2280         DW        32802
   \   00002A   ....         DW        ??ZDApp_ProcessMsgCBs_2
   \   00002C   0100         DW        1
   \   00002E   2000         DW        32
   \   000030   ....         DW        ??ZDApp_ProcessMsgCBs_3
   \   000032   ....         DW        ??ZDApp_ProcessMsgCBs_4
   1181            {
   1182          #if defined ( ZDO_NWKADDR_REQUEST ) || defined ( ZDO_IEEEADDR_REQUEST ) || defined ( REFLECTOR )
   1183              case NWK_addr_rsp:
   1184              case IEEE_addr_rsp:
   1185                {
   1186                  ZDO_NwkIEEEAddrResp_t *pAddrRsp;
   1187                  pAddrRsp = ZDO_ParseAddrRsp( inMsg );
   \                     ??ZDApp_ProcessMsgCBs_1:
   \   000034                ; Setup parameters for call to function ZDO_ParseAddrRsp
   \   000034   12....       LCALL     `??ZDO_ParseAddrRsp::?relay`; Banked call to: ZDO_ParseAddrRsp
   \   000037   8A..         MOV       ?V0,R2
   \   000039   8B..         MOV       ?V1,R3
   \   00003B   AF..         MOV       R7,?V1
   1188                  if ( pAddrRsp )
   \   00003D   EA           MOV       A,R2
   \   00003E   4F           ORL       A,R7
   \   00003F   7003         JNZ       $+5
   \   000041   02....       LJMP      ??ZDApp_ProcessMsgCBs_4 & 0xFFFF
   1189                  {
   1190                    if ( pAddrRsp->status == ZSuccess )
   \   000044   8A82         MOV       DPL,R2
   \   000046   8B83         MOV       DPH,R3
   \   000048   E0           MOVX      A,@DPTR
   \   000049   700D         JNZ       ??ZDApp_ProcessMsgCBs_5
   1191                    {
   1192                      ZDO_UpdateAddrManager( pAddrRsp->nwkAddr, pAddrRsp->extAddr );
   \   00004B                ; Setup parameters for call to function ZDO_UpdateAddrManager
   \   00004B   EA           MOV       A,R2
   \   00004C   2403         ADD       A,#0x3
   \   00004E   FC           MOV       R4,A
   \   00004F   E4           CLR       A
   \   000050   3F           ADDC      A,R7
   \   000051   FD           MOV       R5,A
   \   000052   12....       LCALL     ?Subroutine24 & 0xFFFF
   1193                    }
   \                     ??CrossCallReturnLabel_71:
   \   000055   12....       LCALL     `??ZDO_UpdateAddrManager::?relay`; Banked call to: ZDO_UpdateAddrManager
   1194                    osal_mem_free( pAddrRsp );
   \                     ??ZDApp_ProcessMsgCBs_5:
   \   000058                ; Setup parameters for call to function osal_mem_free
   \   000058   AA..         MOV       R2,?V0
   \   00005A   EF           MOV       A,R7
   \   00005B   8075         SJMP      ??ZDApp_ProcessMsgCBs_6
   1195                  }
   1196                }
   1197                break;
   1198          #endif
   1199          
   1200          #if defined ( REFLECTOR )
   1201              case Bind_req:
   1202              case Unbind_req:
   1203                {
   1204                  ZDO_BindUnbindReq_t bindReq;
   1205                  ZDO_ParseBindUnbindReq( inMsg, &bindReq );
   \                     ??ZDApp_ProcessMsgCBs_0:
   \   00005D                ; Setup parameters for call to function ZDO_ParseBindUnbindReq
   \   00005D   7417         MOV       A,#0x17
   \   00005F   12....       LCALL     ?XSTACK_DISP102_8
   \   000062   12....       LCALL     `??ZDO_ParseBindUnbindReq::?relay`; Banked call to: ZDO_ParseBindUnbindReq
   1206                  ZDO_ProcessBindUnbindReq( inMsg, &bindReq );
   \   000065                ; Setup parameters for call to function ZDO_ProcessBindUnbindReq
   \   000065   7417         MOV       A,#0x17
   \   000067   12....       LCALL     ?XSTACK_DISP102_8
   \   00006A   EE           MOV       A,R6
   \   00006B   FA           MOV       R2,A
   \   00006C   EF           MOV       A,R7
   \   00006D   FB           MOV       R3,A
   \   00006E   12....       LCALL     `??ZDO_ProcessBindUnbindReq::?relay`; Banked call to: ZDO_ProcessBindUnbindReq
   1207                }
   1208                break;
   \   000071   8063         SJMP      ??ZDApp_ProcessMsgCBs_4
   1209          #endif
   1210          
   1211          #if ( ZG_BUILD_COORDINATOR_TYPE )
   1212              case Bind_rsp:
   1213              case Unbind_rsp:
   1214                if (ZG_DEVICE_COORDINATOR_TYPE && matchED)
   \                     ??ZDApp_ProcessMsgCBs_2:
   \   000073   90....       MOV       DPTR,#matchED
   \   000076   12....       LCALL     ?Subroutine11 & 0xFFFF
   \                     ??CrossCallReturnLabel_3:
   \   000079   605B         JZ        ??ZDApp_ProcessMsgCBs_4
   1215                {
   1216                  ZDMatchSendState(
   1217                       (uint8)((inMsg->clusterID == Bind_rsp) ? ZDMATCH_REASON_BIND_RSP : ZDMATCH_REASON_UNBIND_RSP),
   1218                       ZDO_ParseBindRsp(inMsg), inMsg->TransSeq );
   \   00007B   12....       LCALL     ?Subroutine29 & 0xFFFF
   1219                }
   \                     ??CrossCallReturnLabel_36:
   \   00007E   6421         XRL       A,#0x21
   \   000080   7004         JNZ       ??ZDApp_ProcessMsgCBs_7
   \   000082   A3           INC       DPTR
   \   000083   E0           MOVX      A,@DPTR
   \   000084   6480         XRL       A,#0x80
   \                     ??ZDApp_ProcessMsgCBs_7:
   \   000086   7004         JNZ       ??ZDApp_ProcessMsgCBs_8
   \   000088   7903         MOV       R1,#0x3
   \   00008A   8002         SJMP      ??ZDApp_ProcessMsgCBs_9
   \                     ??ZDApp_ProcessMsgCBs_8:
   \   00008C   7902         MOV       R1,#0x2
   \                     ??ZDApp_ProcessMsgCBs_9:
   \   00008E                ; Setup parameters for call to function ZDMatchSendState
   \   00008E   EA           MOV       A,R2
   \   00008F   12....       LCALL     ?Subroutine33 & 0xFFFF
   \                     ??CrossCallReturnLabel_42:
   \   000092   FB           MOV       R3,A
   \   000093   EA           MOV       A,R2
   \   000094   12....       LCALL     ?Subroutine34 & 0xFFFF
   \                     ??CrossCallReturnLabel_44:
   \   000097   12....       LCALL     ??Subroutine54_0 & 0xFFFF
   \                     ??CrossCallReturnLabel_96:
   \   00009A   FA           MOV       R2,A
   \   00009B   12....       LCALL     `??ZDMatchSendState::?relay`; Banked call to: ZDMatchSendState
   \   00009E   8036         SJMP      ??ZDApp_ProcessMsgCBs_4
   1220                break;
   1221          
   1222              case End_Device_Bind_req:
   1223                if (ZG_DEVICE_COORDINATOR_TYPE)
   1224                {
   1225                  ZDEndDeviceBind_t bindReq;
   1226                  ZDO_ParseEndDeviceBindReq( inMsg, &bindReq );
   \                     ??ZDApp_ProcessMsgCBs_3:
   \   0000A0                ; Setup parameters for call to function ZDO_ParseEndDeviceBindReq
   \   0000A0   AC..         MOV       R4,?XSP + 0
   \   0000A2   AD..         MOV       R5,?XSP + 1
   \   0000A4   12....       LCALL     `??ZDO_ParseEndDeviceBindReq::?relay`; Banked call to: ZDO_ParseEndDeviceBindReq
   1227                  ZDO_MatchEndDeviceBind( &bindReq );
   \   0000A7                ; Setup parameters for call to function ZDO_MatchEndDeviceBind
   \   0000A7   AA..         MOV       R2,?XSP + 0
   \   0000A9   AB..         MOV       R3,?XSP + 1
   \   0000AB   12....       LCALL     `??ZDO_MatchEndDeviceBind::?relay`; Banked call to: ZDO_MatchEndDeviceBind
   1228          
   1229                  // Freeing the cluster lists - if allocated.
   1230                  if ( bindReq.numInClusters )
   \   0000AE   7411         MOV       A,#0x11
   \   0000B0   12....       LCALL     ?XSTACK_DISP0_8
   \   0000B3   E0           MOVX      A,@DPTR
   \   0000B4   600B         JZ        ??ZDApp_ProcessMsgCBs_10
   1231                    osal_mem_free( bindReq.inClusters );
   \   0000B6                ; Setup parameters for call to function osal_mem_free
   \   0000B6   7412         MOV       A,#0x12
   \   0000B8   12....       LCALL     ?XSTACK_DISP0_8
   \   0000BB   12....       LCALL     ??Subroutine46_0 & 0xFFFF
   \                     ??CrossCallReturnLabel_70:
   \   0000BE   12....       LCALL     `??osal_mem_free::?relay`; Banked call to: osal_mem_free
   1232                  if ( bindReq.numOutClusters )
   \                     ??ZDApp_ProcessMsgCBs_10:
   \   0000C1   7414         MOV       A,#0x14
   \   0000C3   12....       LCALL     ?XSTACK_DISP0_8
   \   0000C6   E0           MOVX      A,@DPTR
   \   0000C7   600D         JZ        ??ZDApp_ProcessMsgCBs_4
   1233                    osal_mem_free( bindReq.outClusters );
   \   0000C9                ; Setup parameters for call to function osal_mem_free
   \   0000C9   7415         MOV       A,#0x15
   \   0000CB   12....       LCALL     ?XSTACK_DISP0_8
   \   0000CE   E0           MOVX      A,@DPTR
   \   0000CF   FA           MOV       R2,A
   \   0000D0   A3           INC       DPTR
   \   0000D1   E0           MOVX      A,@DPTR
   \                     ??ZDApp_ProcessMsgCBs_6:
   \   0000D2   FB           MOV       R3,A
   \   0000D3   12....       LCALL     `??osal_mem_free::?relay`; Banked call to: osal_mem_free
   1234                }
   1235                break;
   1236          #endif
   1237            }
   1238          }
   \                     ??ZDApp_ProcessMsgCBs_4:
   \   0000D6   742C         MOV       A,#0x2c
   \   0000D8   02....       LJMP      ??Subroutine48_0 & 0xFFFF

   \                                 In  segment BANKED_CODE, align 1, keep-with-next
   \                     ?Subroutine24:
   \   000000   A3           INC       DPTR
   \   000001                REQUIRE ??Subroutine46_0
   \   000001                ; // Fall through to label ??Subroutine46_0

   \                                 In  segment BANKED_CODE, align 1, keep-with-next
   \                     ?Subroutine34:
   \   000000   2413         ADD       A,#0x13
   \   000002   F582         MOV       DPL,A
   \   000004   E4           CLR       A
   \   000005   3F           ADDC      A,R7
   \   000006   F583         MOV       DPH,A
   \   000008   22           RET

   \                                 In  segment BANKED_CODE, align 1, keep-with-next
   \                     ??Subroutine54_0:
   \   000000   E0           MOVX      A,@DPTR
   \   000001   F8           MOV       R0,A
   \   000002   A3           INC       DPTR
   \   000003   E0           MOVX      A,@DPTR
   \   000004   F583         MOV       DPH,A
   \   000006   8882         MOV       DPL,R0
   \   000008   E0           MOVX      A,@DPTR
   \   000009   22           RET

   \                                 In  segment BANKED_CODE, align 1, keep-with-next
   \                     ?Subroutine33:
   \   000000   240F         ADD       A,#0xf
   \   000002   F582         MOV       DPL,A
   \   000004   E4           CLR       A
   \   000005   3F           ADDC      A,R7
   \   000006   F583         MOV       DPH,A
   \   000008   E0           MOVX      A,@DPTR
   \   000009   22           RET

   \                                 In  segment BANKED_CODE, align 1, keep-with-next
   \                     ?Subroutine41:
   \   000000   240C         ADD       A,#0xc
   \   000002   F582         MOV       DPL,A
   \   000004   E4           CLR       A
   \   000005   3F           ADDC      A,R7
   \   000006   F583         MOV       DPH,A
   \   000008   22           RET

   \                                 In  segment BANKED_CODE, align 1, keep-with-next
   \                     ?Subroutine29:
   \   000000   12....       LCALL     ?Subroutine40 & 0xFFFF
   \                     ??CrossCallReturnLabel_55:
   \   000003   22           RET

   \                                 In  segment BANKED_CODE, align 1, keep-with-next
   \                     ?Subroutine40:
   \   000000   EA           MOV       A,R2
   \   000001   12....       LCALL     ?Subroutine41 & 0xFFFF
   \                     ??CrossCallReturnLabel_57:
   \   000004   E0           MOVX      A,@DPTR
   \   000005   22           RET

   \                                 In  segment BANKED_CODE, align 1, keep-with-next
   \                     ?Subroutine27:
   \   000000   12....       LCALL     ?Subroutine40 & 0xFFFF
   \                     ??CrossCallReturnLabel_54:
   \   000003   F5..         MOV       ?V0,A
   \   000005   A3           INC       DPTR
   \   000006   E0           MOVX      A,@DPTR
   \   000007   22           RET
   1239          
   1240          /*********************************************************************
   1241           * @fn      ZDApp_RegisterCBs()
   1242           *
   1243           * @brief   Process response messages
   1244           *
   1245           * @param   none
   1246           *
   1247           * @return  none
   1248           */

   \                                 In  segment BANKED_CODE, align 1, keep-with-next
   1249          void ZDApp_RegisterCBs( void )
   \                     ZDApp_RegisterCBs:
   1250          {
   \   000000   C082         PUSH      DPL
   \   000002   C083         PUSH      DPH
   \   000004                ; Saved register size: 2
   \   000004                ; Auto size: 0
   1251          #if defined ( ZDO_IEEEADDR_REQUEST ) || defined ( REFLECTOR )
   1252            ZDO_RegisterForZDOMsg( ZDAppTaskID, IEEE_addr_rsp );
   \   000004                ; Setup parameters for call to function ZDO_RegisterForZDOMsg
   \   000004   7A01         MOV       R2,#0x1
   \   000006   12....       LCALL     ?Subroutine14 & 0xFFFF
   1253          #endif
   1254          #if defined ( ZDO_NWKADDR_REQUEST ) || defined ( REFLECTOR )
   1255            ZDO_RegisterForZDOMsg( ZDAppTaskID, NWK_addr_rsp );
   \                     ??CrossCallReturnLabel_73:
   \   000009                ; Setup parameters for call to function ZDO_RegisterForZDOMsg
   \   000009   7A00         MOV       R2,#0x0
   \   00000B   12....       LCALL     ?Subroutine14 & 0xFFFF
   1256          #endif
   1257          #if ZG_BUILD_COORDINATOR_TYPE
   1258            ZDO_RegisterForZDOMsg( ZDAppTaskID, Bind_rsp );
   \                     ??CrossCallReturnLabel_74:
   \   00000E                ; Setup parameters for call to function ZDO_RegisterForZDOMsg
   \   00000E   7A21         MOV       R2,#0x21
   \   000010   12....       LCALL     ?Subroutine14 & 0xFFFF
   1259            ZDO_RegisterForZDOMsg( ZDAppTaskID, Unbind_rsp );
   \                     ??CrossCallReturnLabel_75:
   \   000013                ; Setup parameters for call to function ZDO_RegisterForZDOMsg
   \   000013   7A22         MOV       R2,#0x22
   \   000015   12....       LCALL     ?Subroutine14 & 0xFFFF
   1260            ZDO_RegisterForZDOMsg( ZDAppTaskID, End_Device_Bind_req );
   \                     ??CrossCallReturnLabel_76:
   \   000018                ; Setup parameters for call to function ZDO_RegisterForZDOMsg
   \   000018   7A20         MOV       R2,#0x20
   \   00001A   7B00         MOV       R3,#0x0
   \   00001C   12....       LCALL     ??Subroutine47_0 & 0xFFFF
   1261          #endif
   1262          #if defined ( REFLECTOR )
   1263            ZDO_RegisterForZDOMsg( ZDAppTaskID, Bind_req );
   \                     ??CrossCallReturnLabel_77:
   \   00001F                ; Setup parameters for call to function ZDO_RegisterForZDOMsg
   \   00001F   7A21         MOV       R2,#0x21
   \   000021   7B00         MOV       R3,#0x0
   \   000023   12....       LCALL     ??Subroutine47_0 & 0xFFFF
   1264            ZDO_RegisterForZDOMsg( ZDAppTaskID, Unbind_req );
   \                     ??CrossCallReturnLabel_78:
   \   000026                ; Setup parameters for call to function ZDO_RegisterForZDOMsg
   \   000026   7A22         MOV       R2,#0x22
   \   000028   7B00         MOV       R3,#0x0
   \   00002A   12....       LCALL     ??Subroutine47_0 & 0xFFFF
   1265          #endif
   1266          }
   \                     ??CrossCallReturnLabel_79:
   \   00002D   02....       LJMP      ?Subroutine3 & 0xFFFF

   \                                 In  segment BANKED_CODE, align 1, keep-with-next
   \                     ?Subroutine14:
   \   000000   7B80         MOV       R3,#-0x80
   \   000002                REQUIRE ??Subroutine47_0
   \   000002                ; // Fall through to label ??Subroutine47_0

   \                                 In  segment BANKED_CODE, align 1, keep-with-next
   \                     ??Subroutine47_0:
   \   000000   90....       MOV       DPTR,#ZDAppTaskID
   \   000003   E0           MOVX      A,@DPTR
   \   000004   F9           MOV       R1,A
   \   000005   12....       LCALL     `??ZDO_RegisterForZDOMsg::?relay`; Banked call to: ZDO_RegisterForZDOMsg
   \   000008   22           RET
   1267          
   1268          /*********************************************************************
   1269           * @fn      ZDApp_ProcessSecMsg()
   1270           *
   1271           * @brief   Process the incoming security message.
   1272           *
   1273           * @param   msgPtr - message to process
   1274           *
   1275           * @return  none
   1276           */

   \                                 In  segment BANKED_CODE, align 1, keep-with-next
   1277          void ZDApp_ProcessSecMsg( osal_event_hdr_t *msgPtr )
   \                     ZDApp_ProcessSecMsg:
   1278          {
   \   000000   C082         PUSH      DPL
   \   000002   C083         PUSH      DPH
   \   000004                ; Saved register size: 2
   \   000004                ; Auto size: 0
   1279            switch ( msgPtr->event )
   \   000004   8A82         MOV       DPL,R2
   \   000006   8B83         MOV       DPH,R3
   \   000008   E0           MOVX      A,@DPTR
   \   000009   6407         XRL       A,#0x7
   \   00000B   7003         JNZ       ??ZDApp_ProcessSecMsg_0
   1280            {
   1281              case ZDO_ESTABLISH_KEY_CFM:
   1282                if ( ZG_CHECK_SECURITY_MODE == ZG_SECURITY_PRO_HIGH )
   1283                {
   1284                  ZDSecMgrEstablishKeyCfm( (ZDO_EstablishKeyCfm_t*)msgPtr );
   1285                }
   1286                break;
   1287          
   1288              case ZDO_ESTABLISH_KEY_IND:
   1289                if ( ZG_CHECK_SECURITY_MODE == ZG_SECURITY_PRO_HIGH )
   1290                {
   1291                  if ( ZG_BUILD_JOINING_TYPE && ZG_DEVICE_JOINING_TYPE )
   1292                  {
   1293                    ZDSecMgrEstablishKeyInd( (ZDO_EstablishKeyInd_t*)msgPtr );
   1294                  }
   1295                }
   1296                break;
   1297          
   1298              case ZDO_TRANSPORT_KEY_IND:
   1299                if ( ZG_BUILD_JOINING_TYPE && ZG_DEVICE_JOINING_TYPE )
   1300                {
   1301                  ZDSecMgrTransportKeyInd( (ZDO_TransportKeyInd_t*)msgPtr );
   1302                }
   1303                break;
   1304          
   1305              case ZDO_UPDATE_DEVICE_IND:
   1306                if ( ZG_BUILD_COORDINATOR_TYPE && ZG_DEVICE_COORDINATOR_TYPE )
   1307                {
   1308                  ZDSecMgrUpdateDeviceInd( (ZDO_UpdateDeviceInd_t*)msgPtr );
   \   00000D                ; Setup parameters for call to function ZDSecMgrUpdateDeviceInd
   \   00000D   12....       LCALL     `??ZDSecMgrUpdateDeviceInd::?relay`; Banked call to: ZDSecMgrUpdateDeviceInd
   1309                }
   1310                break;
   1311          
   1312              case ZDO_REMOVE_DEVICE_IND:
   1313                if ( ZG_BUILD_RTRONLY_TYPE && ( zgDeviceLogicalType == ZG_DEVICETYPE_ROUTER ) )
   1314                {
   1315                  ZDSecMgrRemoveDeviceInd( (ZDO_RemoveDeviceInd_t*)msgPtr );
   1316                }
   1317                break;
   1318          
   1319              case ZDO_REQUEST_KEY_IND:
   1320                if (( ZG_CHECK_SECURITY_MODE == ZG_SECURITY_PRO_HIGH ) ||
   1321                    ( ZG_CHECK_SECURITY_MODE == ZG_SECURITY_SE_STANDARD ))
   1322                {
   1323                  if ( ZG_BUILD_COORDINATOR_TYPE && ZG_DEVICE_COORDINATOR_TYPE )
   1324                  {
   1325                    ZDSecMgrRequestKeyInd( (ZDO_RequestKeyInd_t*)msgPtr );
   1326                  }
   1327                }
   1328                break;
   1329          
   1330              case ZDO_SWITCH_KEY_IND:
   1331                if ( ZG_BUILD_JOINING_TYPE && ZG_DEVICE_JOINING_TYPE )
   1332                {
   1333                  ZDSecMgrSwitchKeyInd( (ZDO_SwitchKeyInd_t*)msgPtr );
   1334                }
   1335                break;
   1336          
   1337              case ZDO_AUTHENTICATE_IND:
   1338                if ( ZG_CHECK_SECURITY_MODE == ZG_SECURITY_PRO_HIGH )
   1339                {
   1340                  ZDSecMgrAuthenticateInd( (ZDO_AuthenticateInd_t*)msgPtr );
   1341                }
   1342                break;
   1343          
   1344              case ZDO_AUTHENTICATE_CFM:
   1345                if ( ZG_CHECK_SECURITY_MODE == ZG_SECURITY_PRO_HIGH )
   1346                {
   1347                  ZDSecMgrAuthenticateCfm( (ZDO_AuthenticateCfm_t*)msgPtr );
   1348                }
   1349                break;
   1350          
   1351              default:
   1352                // Unsupported messages
   1353                break;
   1354            }
   1355          }
   \                     ??ZDApp_ProcessSecMsg_0:
   \   000010   02....       LJMP      ?Subroutine3 & 0xFFFF
   1356          
   1357          /*********************************************************************
   1358           * @fn      ZDApp_ProcessNetworkJoin()
   1359           *
   1360           * @brief
   1361           *
   1362           *   Save off the Network key information.
   1363           *
   1364           * @param   none
   1365           *
   1366           * @return  none
   1367           */

   \                                 In  segment BANKED_CODE, align 1, keep-with-next
   1368          void ZDApp_ProcessNetworkJoin( void )
   \                     ZDApp_ProcessNetworkJoin:
   1369          {
   \   000000                REQUIRE ?V0
   \   000000                REQUIRE ?V1
   \   000000   74F6         MOV       A,#-0xa
   \   000002   12....       LCALL     ?BANKED_ENTER_XDATA
   \   000005                ; Saved register size: 10
   \   000005                ; Auto size: 2
   \   000005   74FE         MOV       A,#-0x2
   \   000007   12....       LCALL     ?ALLOC_XSTACK8
   1370            if ( (devState == DEV_NWK_JOINING) ||
   1371                ((devState == DEV_NWK_ORPHAN)  &&
   1372                 (ZDO_Config_Node_Descriptor.LogicalType == NODETYPE_ROUTER)) )
   \   00000A   90....       MOV       DPTR,#devState
   \   00000D   E0           MOVX      A,@DPTR
   \   00000E   6403         XRL       A,#0x3
   \   000010   6015         JZ        ??ZDApp_ProcessNetworkJoin_0
   \   000012   E0           MOVX      A,@DPTR
   \   000013   640A         XRL       A,#0xa
   \   000015   6003         JZ        $+5
   \   000017   02....       LJMP      ??ZDApp_ProcessNetworkJoin_1 & 0xFFFF
   \   00001A   90....       MOV       DPTR,#ZDO_Config_Node_Descriptor
   \   00001D   E0           MOVX      A,@DPTR
   \   00001E   5407         ANL       A,#0x7
   \   000020   6401         XRL       A,#0x1
   \   000022   6003         JZ        $+5
   \   000024   02....       LJMP      ??ZDApp_ProcessNetworkJoin_2 & 0xFFFF
   1373            {
   1374              // Result of a Join attempt by this device.
   1375              if ( nwkStatus == ZSuccess )
   \                     ??ZDApp_ProcessNetworkJoin_0:
   \   000027   90....       MOV       DPTR,#nwkStatus
   \   00002A   E0           MOVX      A,@DPTR
   \   00002B   703A         JNZ       ??ZDApp_ProcessNetworkJoin_3
   1376              {
   1377                osal_set_event( ZDAppTaskID, ZDO_STATE_CHANGE_EVT );
   \   00002D                ; Setup parameters for call to function osal_set_event
   \   00002D   12....       LCALL     ?Subroutine13 & 0xFFFF
   1378          
   1379          #if defined ( POWER_SAVING )
   1380                osal_pwrmgr_device( PWRMGR_BATTERY );
   1381          #endif
   1382          
   1383                if ( ZG_SECURE_ENABLED && ( ZDApp_RestoreNwkKey() == false ) )
   1384                {
   1385                  // wait for auth from trust center!!
   1386                  devState = DEV_END_DEVICE_UNAUTH;
   1387          
   1388                  // Start the reset timer for MAX UNAUTH time
   1389                  ZDApp_ResetTimerStart( 10000 );//MAX_DEVICE_UNAUTH_TIMEOUT );
   1390                }
   1391                else
   1392                {
   1393                  if ( ZSTACK_ROUTER_BUILD )
   1394                  {
   1395                    if ( devState == DEV_NWK_ORPHAN
   1396                      && ZDO_Config_Node_Descriptor.LogicalType != NODETYPE_DEVICE )
   \                     ??CrossCallReturnLabel_60:
   \   000030   90....       MOV       DPTR,#devState
   \   000033   E0           MOVX      A,@DPTR
   \   000034   640A         XRL       A,#0xa
   \   000036   700D         JNZ       ??ZDApp_ProcessNetworkJoin_4
   \   000038   12....       LCALL     ?Subroutine20 & 0xFFFF
   \                     ??CrossCallReturnLabel_16:
   \   00003B   6010         JZ        ??ZDApp_ProcessNetworkJoin_5
   1397                    {
   1398                      // Change NIB state to router for restore
   1399                      _NIB.nwkState = NWK_ROUTER;
   \   00003D   90....       MOV       DPTR,#_NIB + 35
   \   000040   7408         MOV       A,#0x8
   \   000042   F0           MOVX      @DPTR,A
   \   000043   8008         SJMP      ??ZDApp_ProcessNetworkJoin_5
   1400                    }
   1401                  }
   1402          
   1403                  if ( devState == DEV_NWK_JOINING )
   \                     ??ZDApp_ProcessNetworkJoin_4:
   \   000045   E0           MOVX      A,@DPTR
   \   000046   6403         XRL       A,#0x3
   \   000048   7003         JNZ       ??ZDApp_ProcessNetworkJoin_5
   1404                  {
   1405                    ZDApp_AnnounceNewAddress();
   \   00004A                ; Setup parameters for call to function ZDApp_AnnounceNewAddress
   \   00004A   12....       LCALL     `??ZDApp_AnnounceNewAddress::?relay`; Banked call to: ZDApp_AnnounceNewAddress
   1406                  }
   1407          
   1408                  devState = DEV_END_DEVICE;
   \                     ??ZDApp_ProcessNetworkJoin_5:
   \   00004D   90....       MOV       DPTR,#devState
   \   000050   7406         MOV       A,#0x6
   \   000052   F0           MOVX      @DPTR,A
   1409                  if ( ZSTACK_ROUTER_BUILD )
   1410                  {
   1411                    // NOTE: first two parameters are not used, see NLMEDE.h for details
   1412                    if ( ZDO_Config_Node_Descriptor.LogicalType != NODETYPE_DEVICE )
   \   000053   12....       LCALL     ?Subroutine20 & 0xFFFF
   \                     ??CrossCallReturnLabel_17:
   \   000056   7003         JNZ       $+5
   \   000058   02....       LJMP      ??CrossCallReturnLabel_61 & 0xFFFF
   1413                    {
   1414                      NLME_StartRouterRequest( 0, 0, false );
   \   00005B                ; Setup parameters for call to function NLME_StartRouterRequest
   \   00005B   7B00         MOV       R3,#0x0
   \   00005D   7A00         MOV       R2,#0x0
   \   00005F   7900         MOV       R1,#0x0
   \   000061   12....       LCALL     `??NLME_StartRouterRequest::?relay`; Banked call to: NLME_StartRouterRequest
   \   000064   02....       LJMP      ??CrossCallReturnLabel_61 & 0xFFFF
   1415                    }
   1416                  }
   1417                }
   1418              }
   1419              else
   1420              {
   1421                if ( (devStartMode == MODE_RESUME) && (++retryCnt >= MAX_RESUME_RETRY) )
   \                     ??ZDApp_ProcessNetworkJoin_3:
   \   000067   90....       MOV       DPTR,#devStartMode
   \   00006A   E0           MOVX      A,@DPTR
   \   00006B   6401         XRL       A,#0x1
   \   00006D   7036         JNZ       ??ZDApp_ProcessNetworkJoin_6
   \   00006F   90....       MOV       DPTR,#retryCnt
   \   000072   E0           MOVX      A,@DPTR
   \   000073   04           INC       A
   \   000074   F0           MOVX      @DPTR,A
   \   000075   C3           CLR       C
   \   000076   9403         SUBB      A,#0x3
   \   000078   402B         JC        ??ZDApp_ProcessNetworkJoin_6
   1422                {
   1423                  if ( _NIB.nwkPanId == 0xFFFF || _NIB.nwkPanId == INVALID_PAN_ID )
   \   00007A   90....       MOV       DPTR,#_NIB + 33
   \   00007D   E0           MOVX      A,@DPTR
   \   00007E   F4           CPL       A
   \   00007F   7003         JNZ       ??ZDApp_ProcessNetworkJoin_7
   \   000081   A3           INC       DPTR
   \   000082   E0           MOVX      A,@DPTR
   \   000083   F4           CPL       A
   \                     ??ZDApp_ProcessNetworkJoin_7:
   \   000084   600D         JZ        ??ZDApp_ProcessNetworkJoin_8
   \   000086   90....       MOV       DPTR,#_NIB + 33
   \   000089   E0           MOVX      A,@DPTR
   \   00008A   64FE         XRL       A,#0xfe
   \   00008C   7003         JNZ       ??ZDApp_ProcessNetworkJoin_9
   \   00008E   A3           INC       DPTR
   \   00008F   E0           MOVX      A,@DPTR
   \   000090   F4           CPL       A
   \                     ??ZDApp_ProcessNetworkJoin_9:
   \   000091   7006         JNZ       ??ZDApp_ProcessNetworkJoin_10
   1424                    devStartMode = MODE_JOIN;
   \                     ??ZDApp_ProcessNetworkJoin_8:
   \   000093   90....       MOV       DPTR,#devStartMode
   \   000096   E4           CLR       A
   \   000097   800B         SJMP      ??ZDApp_ProcessNetworkJoin_11
   1425                  else
   1426                  {
   1427                    devStartMode = MODE_REJOIN;
   \                     ??ZDApp_ProcessNetworkJoin_10:
   \   000099   90....       MOV       DPTR,#devStartMode
   \   00009C   7403         MOV       A,#0x3
   \   00009E   F0           MOVX      @DPTR,A
   1428                    _tmpRejoinState = true;
   \   00009F   90....       MOV       DPTR,#_tmpRejoinState
   \   0000A2   7401         MOV       A,#0x1
   \                     ??ZDApp_ProcessNetworkJoin_11:
   \   0000A4   F0           MOVX      @DPTR,A
   1429                  }
   1430                }
   1431          
   1432                if ( (NLME_GetShortAddr() != INVALID_NODE_ADDR) ||
   1433                     (_NIB.nwkDevAddress != INVALID_NODE_ADDR) )
   \                     ??ZDApp_ProcessNetworkJoin_6:
   \   0000A5                ; Setup parameters for call to function NLME_GetShortAddr
   \   0000A5   12....       LCALL     `??NLME_GetShortAddr::?relay`; Banked call to: NLME_GetShortAddr
   \   0000A8   74FE         MOV       A,#-0x2
   \   0000AA   6A           XRL       A,R2
   \   0000AB   7003         JNZ       ??ZDApp_ProcessNetworkJoin_12
   \   0000AD   74FF         MOV       A,#-0x1
   \   0000AF   6B           XRL       A,R3
   \                     ??ZDApp_ProcessNetworkJoin_12:
   \   0000B0   700D         JNZ       ??ZDApp_ProcessNetworkJoin_13
   \   0000B2   90....       MOV       DPTR,#_NIB + 20
   \   0000B5   E0           MOVX      A,@DPTR
   \   0000B6   64FE         XRL       A,#0xfe
   \   0000B8   7003         JNZ       ??ZDApp_ProcessNetworkJoin_14
   \   0000BA   A3           INC       DPTR
   \   0000BB   E0           MOVX      A,@DPTR
   \   0000BC   F4           CPL       A
   \                     ??ZDApp_ProcessNetworkJoin_14:
   \   0000BD   601D         JZ        ??ZDApp_ProcessNetworkJoin_15
   1434                {
   1435                  uint16 addr = INVALID_NODE_ADDR;
   \                     ??ZDApp_ProcessNetworkJoin_13:
   \   0000BF   85..82       MOV       DPL,?XSP + 0
   \   0000C2   85..83       MOV       DPH,?XSP + 1
   \   0000C5   74FE         MOV       A,#-0x2
   \   0000C7   F0           MOVX      @DPTR,A
   \   0000C8   A3           INC       DPTR
   \   0000C9   04           INC       A
   \   0000CA   F0           MOVX      @DPTR,A
   1436                  // Invalidate nwk addr so end device does not use in its data reqs.
   1437                  _NIB.nwkDevAddress = INVALID_NODE_ADDR;
   \   0000CB   90....       MOV       DPTR,#_NIB + 20
   \   0000CE   14           DEC       A
   \   0000CF   F0           MOVX      @DPTR,A
   \   0000D0   A3           INC       DPTR
   \   0000D1   04           INC       A
   \   0000D2   F0           MOVX      @DPTR,A
   1438                  ZMacSetReq( ZMacShortAddress, (uint8 *)&addr );
   \   0000D3                ; Setup parameters for call to function ZMacSetReq
   \   0000D3   AA..         MOV       R2,?XSP + 0
   \   0000D5   AB..         MOV       R3,?XSP + 1
   \   0000D7   7953         MOV       R1,#0x53
   \   0000D9   12....       LCALL     `??ZMacSetReq::?relay`; Banked call to: ZMacSetReq
   1439                }
   1440          
   1441                // Clear the neighbor Table and network discovery tables.
   1442                nwkNeighborInitTable();
   \                     ??ZDApp_ProcessNetworkJoin_15:
   \   0000DC                ; Setup parameters for call to function nwkNeighborInitTable
   \   0000DC   12....       LCALL     `??nwkNeighborInitTable::?relay`; Banked call to: nwkNeighborInitTable
   1443                NLME_NwkDiscTerm();
   \   0000DF                ; Setup parameters for call to function NLME_NwkDiscTerm
   \   0000DF   12....       LCALL     `??NLME_NwkDiscTerm::?relay`; Banked call to: NLME_NwkDiscTerm
   1444          
   1445                zdoDiscCounter = 1;
   \   0000E2   90....       MOV       DPTR,#zdoDiscCounter
   \   0000E5   7401         MOV       A,#0x1
   \   0000E7   F0           MOVX      @DPTR,A
   1446          
   1447          //      ZDApp_NetworkInit( (uint16)
   1448          //                         ((NWK_START_DELAY * (osal_rand() & 0x0F)) +
   1449          //                          (NWK_START_DELAY * 5)) );
   1450                ZDApp_NetworkInit( (uint16)(NWK_START_DELAY
   1451                     + ((uint16)(osal_rand()& EXTENDED_JOINING_RANDOM_MASK))) );
   \   0000E8                ; Setup parameters for call to function osal_rand
   \   0000E8   02....       LJMP      ??ZDApp_ProcessNetworkJoin_16 & 0xFFFF
   1452              }
   1453            }
   1454            else if ( devState == DEV_NWK_ORPHAN || devState == DEV_NWK_REJOIN )
   \                     ??ZDApp_ProcessNetworkJoin_1:
   \   0000EB   E0           MOVX      A,@DPTR
   \   0000EC   6404         XRL       A,#0x4
   \   0000EE   6003         JZ        $+5
   \   0000F0   02....       LJMP      ??ZDApp_ProcessNetworkJoin_17 & 0xFFFF
   1455            {
   1456              // results of an orphaning attempt by this device
   1457              if (nwkStatus == ZSuccess)
   \                     ??ZDApp_ProcessNetworkJoin_2:
   \   0000F3   90....       MOV       DPTR,#nwkStatus
   \   0000F6   E0           MOVX      A,@DPTR
   \   0000F7   7033         JNZ       ??ZDApp_ProcessNetworkJoin_18
   1458              {
   1459                if ( ZG_SECURE_ENABLED )
   1460                {
   1461                  ZDApp_RestoreNwkKey();
   1462                }
   1463          
   1464                devState = DEV_END_DEVICE;
   \   0000F9   12....       LCALL     ?Subroutine8 & 0xFFFF
   1465                osal_set_event( ZDAppTaskID, ZDO_STATE_CHANGE_EVT );
   1466                // setup Power Manager Device
   1467          #if defined ( POWER_SAVING )
   1468                osal_pwrmgr_device( PWRMGR_BATTERY );
   1469          #endif
   1470          
   1471                if ( ZDO_Config_Node_Descriptor.CapabilityFlags & CAPINFO_RCVR_ON_IDLE )
   \                     ??CrossCallReturnLabel_67:
   \   0000FC   90....       MOV       DPTR,#ZDO_Config_Node_Descriptor + 2
   \   0000FF   E0           MOVX      A,@DPTR
   \   000100   A2E3         MOV       C,0xE0 /* A   */.3
   \   000102   5015         JNC       ??ZDApp_ProcessNetworkJoin_19
   1472                {
   1473                  // The receiver is on, turn network layer polling off.
   1474                  NLME_SetPollRate( 0 );
   \   000104                ; Setup parameters for call to function NLME_SetPollRate
   \   000104   7A00         MOV       R2,#0x0
   \   000106   7B00         MOV       R3,#0x0
   \   000108   12....       LCALL     `??NLME_SetPollRate::?relay`; Banked call to: NLME_SetPollRate
   1475                  NLME_SetQueuedPollRate( 0 );
   \   00010B                ; Setup parameters for call to function NLME_SetQueuedPollRate
   \   00010B   7A00         MOV       R2,#0x0
   \   00010D   7B00         MOV       R3,#0x0
   \   00010F   12....       LCALL     `??NLME_SetQueuedPollRate::?relay`; Banked call to: NLME_SetQueuedPollRate
   1476                  NLME_SetResponseRate( 0 );
   \   000112                ; Setup parameters for call to function NLME_SetResponseRate
   \   000112   7A00         MOV       R2,#0x0
   \   000114   7B00         MOV       R3,#0x0
   \   000116   12....       LCALL     `??NLME_SetResponseRate::?relay`; Banked call to: NLME_SetResponseRate
   1477                }
   1478          
   1479                if ( ZSTACK_ROUTER_BUILD )
   1480                {
   1481                  // NOTE: first two parameters are not used, see NLMEDE.h for details
   1482                  if ( ZDO_Config_Node_Descriptor.LogicalType != NODETYPE_DEVICE )
   \                     ??ZDApp_ProcessNetworkJoin_19:
   \   000119   12....       LCALL     ?Subroutine20 & 0xFFFF
   \                     ??CrossCallReturnLabel_18:
   \   00011C   6009         JZ        ??ZDApp_ProcessNetworkJoin_20
   1483                  {
   1484                    NLME_StartRouterRequest( 0, 0, false );
   \   00011E                ; Setup parameters for call to function NLME_StartRouterRequest
   \   00011E   7B00         MOV       R3,#0x0
   \   000120   7A00         MOV       R2,#0x0
   \   000122   7900         MOV       R1,#0x0
   \   000124   12....       LCALL     `??NLME_StartRouterRequest::?relay`; Banked call to: NLME_StartRouterRequest
   1485                  }
   1486                }
   1487          
   1488                ZDApp_AnnounceNewAddress();
   \                     ??ZDApp_ProcessNetworkJoin_20:
   \   000127                ; Setup parameters for call to function ZDApp_AnnounceNewAddress
   \   000127   12....       LCALL     `??ZDApp_AnnounceNewAddress::?relay`; Banked call to: ZDApp_AnnounceNewAddress
   \   00012A   806A         SJMP      ??CrossCallReturnLabel_61
   1489              }
   1490              else
   1491              {
   1492                if ( devStartMode == MODE_RESUME )
   \                     ??ZDApp_ProcessNetworkJoin_18:
   \   00012C   90....       MOV       DPTR,#devStartMode
   \   00012F   E0           MOVX      A,@DPTR
   \   000130   6401         XRL       A,#0x1
   \   000132   703E         JNZ       ??ZDApp_ProcessNetworkJoin_21
   1493                {
   1494                  if ( ++retryCnt <= MAX_RESUME_RETRY )
   \   000134   90....       MOV       DPTR,#retryCnt
   \   000137   E0           MOVX      A,@DPTR
   \   000138   04           INC       A
   \   000139   F0           MOVX      @DPTR,A
   \   00013A   C3           CLR       C
   \   00013B   9404         SUBB      A,#0x4
   \   00013D   5026         JNC       ??ZDApp_ProcessNetworkJoin_22
   1495                  {
   1496                    if ( _NIB.nwkPanId == 0xFFFF || _NIB.nwkPanId == INVALID_PAN_ID )
   \   00013F   90....       MOV       DPTR,#_NIB + 33
   \   000142   E0           MOVX      A,@DPTR
   \   000143   F4           CPL       A
   \   000144   7003         JNZ       ??ZDApp_ProcessNetworkJoin_23
   \   000146   A3           INC       DPTR
   \   000147   E0           MOVX      A,@DPTR
   \   000148   F4           CPL       A
   \                     ??ZDApp_ProcessNetworkJoin_23:
   \   000149   6022         JZ        ??ZDApp_ProcessNetworkJoin_24
   \   00014B   90....       MOV       DPTR,#_NIB + 33
   \   00014E   E0           MOVX      A,@DPTR
   \   00014F   64FE         XRL       A,#0xfe
   \   000151   7003         JNZ       ??ZDApp_ProcessNetworkJoin_25
   \   000153   A3           INC       DPTR
   \   000154   E0           MOVX      A,@DPTR
   \   000155   F4           CPL       A
   \                     ??ZDApp_ProcessNetworkJoin_25:
   \   000156   6015         JZ        ??ZDApp_ProcessNetworkJoin_24
   1497                      devStartMode = MODE_JOIN;
   1498                    else
   1499                    {
   1500                      devStartMode = MODE_REJOIN;
   \   000158   90....       MOV       DPTR,#devStartMode
   \   00015B   7403         MOV       A,#0x3
   \   00015D   F0           MOVX      @DPTR,A
   1501                      _tmpRejoinState = true;
   \   00015E   90....       MOV       DPTR,#_tmpRejoinState
   \   000161   7401         MOV       A,#0x1
   \   000163   800C         SJMP      ??ZDApp_ProcessNetworkJoin_26
   1502                    }
   1503                  }
   1504                  // Do a normal join to the network after certain times of rejoin retries
   1505                  else if( AIB_apsUseInsecureJoin == true )
   \                     ??ZDApp_ProcessNetworkJoin_22:
   \   000165   90....       MOV       DPTR,#AIB_apsUseInsecureJoin
   \   000168   E0           MOVX      A,@DPTR
   \   000169   6401         XRL       A,#0x1
   \   00016B   7005         JNZ       ??ZDApp_ProcessNetworkJoin_21
   1506                  {
   1507                    devStartMode = MODE_JOIN;
   \                     ??ZDApp_ProcessNetworkJoin_24:
   \   00016D   90....       MOV       DPTR,#devStartMode
   \   000170   E4           CLR       A
   \                     ??ZDApp_ProcessNetworkJoin_26:
   \   000171   F0           MOVX      @DPTR,A
   1508                  }
   1509                }
   1510          
   1511                // Clear the neighbor Table and network discovery tables.
   1512                nwkNeighborInitTable();
   \                     ??ZDApp_ProcessNetworkJoin_21:
   \   000172                ; Setup parameters for call to function nwkNeighborInitTable
   \   000172   12....       LCALL     `??nwkNeighborInitTable::?relay`; Banked call to: nwkNeighborInitTable
   1513                NLME_NwkDiscTerm();
   \   000175                ; Setup parameters for call to function NLME_NwkDiscTerm
   \   000175   12....       LCALL     `??NLME_NwkDiscTerm::?relay`; Banked call to: NLME_NwkDiscTerm
   1514          
   1515                // setup a retry for later...
   1516                ZDApp_NetworkInit( (uint16)(NWK_START_DELAY
   1517                     + (osal_rand()& EXTENDED_JOINING_RANDOM_MASK)) );
   \   000178                ; Setup parameters for call to function osal_rand
   \                     ??ZDApp_ProcessNetworkJoin_16:
   \   000178   12....       LCALL     `??osal_rand::?relay`; Banked call to: osal_rand
   \   00017B                ; Setup parameters for call to function ZDApp_NetworkInit
   \   00017B   EA           MOV       A,R2
   \   00017C   547F         ANL       A,#0x7f
   \   00017E   2464         ADD       A,#0x64
   \   000180   FA           MOV       R2,A
   \   000181   7B00         MOV       R3,#0x0
   \   000183   12....       LCALL     `??ZDApp_NetworkInit::?relay`; Banked call to: ZDApp_NetworkInit
   \   000186   800E         SJMP      ??CrossCallReturnLabel_61
   1518              }
   1519            }
   1520          #if defined ( ZIGBEE_STOCHASTIC_ADDRESSING )
   1521            else
   1522            {
   1523              // Assume from address conflict
   1524              if ( _NIB.nwkAddrAlloc == NWK_ADDRESSING_STOCHASTIC )
   \                     ??ZDApp_ProcessNetworkJoin_17:
   \   000188   90....       MOV       DPTR,#_NIB + 96
   \   00018B   E0           MOVX      A,@DPTR
   \   00018C   6402         XRL       A,#0x2
   \   00018E   7006         JNZ       ??CrossCallReturnLabel_61
   1525              {
   1526                // Notify the network
   1527                ZDApp_AnnounceNewAddress();
   \   000190                ; Setup parameters for call to function ZDApp_AnnounceNewAddress
   \   000190   12....       LCALL     `??ZDApp_AnnounceNewAddress::?relay`; Banked call to: ZDApp_AnnounceNewAddress
   1528          
   1529                // Notify apps
   1530                osal_set_event( ZDAppTaskID, ZDO_STATE_CHANGE_EVT );
   \   000193                ; Setup parameters for call to function osal_set_event
   \   000193   12....       LCALL     ?Subroutine13 & 0xFFFF
   1531              }
   1532            }
   1533          #endif
   1534          }
   \                     ??CrossCallReturnLabel_61:
   \   000196   02....       LJMP      ?Subroutine7 & 0xFFFF
   1535          
   1536          /*********************************************************************
   1537           * @fn      ZDApp_SaveNwkKey()
   1538           *
   1539           * @brief   Save off the Network key information.
   1540           *
   1541           * @param   none
   1542           *
   1543           * @return  none
   1544           */

   \                                 In  segment BANKED_CODE, align 1, keep-with-next
   \                     ?Subroutine1:
   \   000000   7415         MOV       A,#0x15
   \   000002                REQUIRE ??Subroutine43_0
   \   000002                ; // Fall through to label ??Subroutine43_0

   \                                 In  segment BANKED_CODE, align 1, keep-with-next
   \                     ??Subroutine43_0:
   \   000000   12....       LCALL     ?DEALLOC_XSTACK8
   \   000003                REQUIRE ??Subroutine44_0
   \   000003                ; // Fall through to label ??Subroutine44_0

   \                                 In  segment BANKED_CODE, align 1, keep-with-next
   1545          void ZDApp_SaveNwkKey( void )
   \                     ZDApp_SaveNwkKey:
   1546          {
   \   000000                REQUIRE ?V0
   \   000000                REQUIRE ?V1
   \   000000                REQUIRE ?V2
   \   000000                REQUIRE ?V3
   \   000000   74F4         MOV       A,#-0xc
   \   000002   12....       LCALL     ?BANKED_ENTER_XDATA
   \   000005                ; Saved register size: 12
   \   000005                ; Auto size: 21
   \   000005   74EB         MOV       A,#-0x15
   \   000007   12....       LCALL     ?ALLOC_XSTACK8
   1547            nwkActiveKeyItems keyItems;
   1548          
   1549            SSP_ReadNwkActiveKey( &keyItems );
   \   00000A                ; Setup parameters for call to function SSP_ReadNwkActiveKey
   \   00000A   AA..         MOV       R2,?XSP + 0
   \   00000C   AB..         MOV       R3,?XSP + 1
   \   00000E   12....       LCALL     `??SSP_ReadNwkActiveKey::?relay`; Banked call to: SSP_ReadNwkActiveKey
   1550            keyItems.frameCounter++;
   \   000011   90....       MOV       DPTR,#__Constant_1
   \   000014   78..         MOV       R0,#?V0
   \   000016   12....       LCALL     ?L_MOV_X
   \   000019   7411         MOV       A,#0x11
   \   00001B   12....       LCALL     ?XSTACK_DISP0_8
   \   00001E   78..         MOV       R0,#?V0
   \   000020   12....       LCALL     ?L_ADD_TO_X
   1551          
   1552            osal_nv_write( ZCD_NV_NWKKEY, 0, sizeof( nwkActiveKeyItems ),
   1553                          (void *)&keyItems );
   \   000023                ; Setup parameters for call to function osal_nv_write
   \   000023   A8..         MOV       R0,?XSP + 0
   \   000025   A9..         MOV       R1,?XSP + 1
   \   000027   88..         MOV       ?V0,R0
   \   000029   89..         MOV       ?V1,R1
   \   00002B   78..         MOV       R0,#?V0
   \   00002D   12....       LCALL     ?PUSH_XSTACK_I_TWO
   \   000030   75..15       MOV       ?V0,#0x15
   \   000033   75..00       MOV       ?V1,#0x0
   \   000036   78..         MOV       R0,#?V0
   \   000038   12....       LCALL     ?PUSH_XSTACK_I_TWO
   \   00003B   7C00         MOV       R4,#0x0
   \   00003D   7D00         MOV       R5,#0x0
   \   00003F   7A82         MOV       R2,#-0x7e
   \   000041   7B00         MOV       R3,#0x0
   \   000043   12....       LCALL     `??osal_nv_write::?relay`; Banked call to: osal_nv_write
   \   000046   7404         MOV       A,#0x4
   \   000048   12....       LCALL     ?DEALLOC_XSTACK8
   1554          
   1555            nwkFrameCounterChanges = 0;
   \   00004B   90....       MOV       DPTR,#nwkFrameCounterChanges
   \   00004E   E4           CLR       A
   \   00004F   F0           MOVX      @DPTR,A
   \   000050   A3           INC       DPTR
   \   000051   F0           MOVX      @DPTR,A
   1556          
   1557            // Clear copy in RAM before return.
   1558            osal_memset( &keyItems, 0x00, sizeof(keyItems) );
   \   000052                ; Setup parameters for call to function osal_memset
   \   000052   7C15         MOV       R4,#0x15
   \   000054   FD           MOV       R5,A
   \   000055   F9           MOV       R1,A
   \   000056   AA..         MOV       R2,?XSP + 0
   \   000058   AB..         MOV       R3,?XSP + 1
   \   00005A   12....       LCALL     `??osal_memset::?relay`; Banked call to: osal_memset
   1559          
   1560          }
   \   00005D   02....       LJMP      ?Subroutine1 & 0xFFFF
   1561          
   1562          /*********************************************************************
   1563           * @fn      ZDApp_ResetNwkKey()
   1564           *
   1565           * @brief   Reset the Network key information in NV.
   1566           *
   1567           * @param   none
   1568           *
   1569           * @return  none
   1570           */

   \                                 In  segment BANKED_CODE, align 1, keep-with-next
   1571          void ZDApp_ResetNwkKey( void )
   \                     ZDApp_ResetNwkKey:
   1572          {
   \   000000                REQUIRE ?V0
   \   000000                REQUIRE ?V1
   \   000000   74F6         MOV       A,#-0xa
   \   000002   12....       LCALL     ?BANKED_ENTER_XDATA
   \   000005                ; Saved register size: 10
   \   000005                ; Auto size: 21
   \   000005   74EB         MOV       A,#-0x15
   \   000007   12....       LCALL     ?ALLOC_XSTACK8
   1573            nwkActiveKeyItems keyItems;
   1574          
   1575            osal_memset( &keyItems, 0, sizeof( nwkActiveKeyItems ) );
   \   00000A                ; Setup parameters for call to function osal_memset
   \   00000A   7C15         MOV       R4,#0x15
   \   00000C   12....       LCALL     ?Subroutine26 & 0xFFFF
   1576            osal_nv_write( ZCD_NV_NWKKEY, 0, sizeof( nwkActiveKeyItems ),
   1577                          (void *)&keyItems );
   \                     ??CrossCallReturnLabel_29:
   \   00000F   12....       LCALL     ?PUSH_XSTACK_I_TWO
   \   000012   75..15       MOV       ?V0,#0x15
   \   000015   75..00       MOV       ?V1,#0x0
   \   000018   78..         MOV       R0,#?V0
   \   00001A   12....       LCALL     ?PUSH_XSTACK_I_TWO
   \   00001D   7C00         MOV       R4,#0x0
   \   00001F   7D00         MOV       R5,#0x0
   \   000021   7A82         MOV       R2,#-0x7e
   \   000023   7B00         MOV       R3,#0x0
   \   000025   12....       LCALL     `??osal_nv_write::?relay`; Banked call to: osal_nv_write
   \   000028   7404         MOV       A,#0x4
   \   00002A   12....       LCALL     ?DEALLOC_XSTACK8
   1578          }
   \   00002D   7415         MOV       A,#0x15
   \   00002F   80..         SJMP      ??Subroutine48_0
   1579          
   1580          /*********************************************************************
   1581           * @fn      ZDApp_RestoreNwkKey()
   1582           *
   1583           * @brief
   1584           *
   1585           *   Save off the Network key information.
   1586           *
   1587           * @param   none
   1588           *
   1589           * @return  true if restored from NV, false if not
   1590           */

   \                                 In  segment BANKED_CODE, align 1, keep-with-next
   1591          uint8 ZDApp_RestoreNwkKey( void )
   \                     ZDApp_RestoreNwkKey:
   1592          {
   \   000000                REQUIRE ?V0
   \   000000                REQUIRE ?V1
   \   000000                REQUIRE ?V2
   \   000000                REQUIRE ?V3
   \   000000   74F4         MOV       A,#-0xc
   \   000002   12....       LCALL     ?BANKED_ENTER_XDATA
   \   000005                ; Saved register size: 12
   \   000005                ; Auto size: 21
   \   000005   74EB         MOV       A,#-0x15
   \   000007   12....       LCALL     ?ALLOC_XSTACK8
   1593            nwkActiveKeyItems keyItems;
   1594            uint8 ret = false;
   \   00000A   7E00         MOV       R6,#0x0
   1595          
   1596            if ( osal_nv_read( ZCD_NV_NWKKEY, 0, sizeof(nwkActiveKeyItems), (void*)&keyItems )
   1597                == ZSUCCESS )
   \   00000C                ; Setup parameters for call to function osal_nv_read
   \   00000C   A8..         MOV       R0,?XSP + 0
   \   00000E   A9..         MOV       R1,?XSP + 1
   \   000010   88..         MOV       ?V0,R0
   \   000012   89..         MOV       ?V1,R1
   \   000014   78..         MOV       R0,#?V0
   \   000016   12....       LCALL     ?PUSH_XSTACK_I_TWO
   \   000019   75..15       MOV       ?V0,#0x15
   \   00001C   8E..         MOV       ?V1,R6
   \   00001E   78..         MOV       R0,#?V0
   \   000020   12....       LCALL     ?PUSH_XSTACK_I_TWO
   \   000023   7C00         MOV       R4,#0x0
   \   000025   7D00         MOV       R5,#0x0
   \   000027   7A82         MOV       R2,#-0x7e
   \   000029   12....       LCALL     ?Subroutine28 & 0xFFFF
   \                     ??CrossCallReturnLabel_33:
   \   00002C   12....       LCALL     ?DEALLOC_XSTACK8
   \   00002F   E9           MOV       A,R1
   \   000030   703A         JNZ       ??ZDApp_RestoreNwkKey_0
   1598            {
   1599              if ( keyItems.frameCounter > 0 )
   \   000032   7411         MOV       A,#0x11
   \   000034   12....       LCALL     ?XSTACK_DISP0_8
   \   000037   12....       LCALL     ?XLOAD_R0123
   \   00003A   E8           MOV       A,R0
   \   00003B   49           ORL       A,R1
   \   00003C   4A           ORL       A,R2
   \   00003D   4B           ORL       A,R3
   \   00003E   6022         JZ        ??ZDApp_RestoreNwkKey_1
   1600              {
   1601                // Restore the key information
   1602                keyItems.frameCounter += MAX_NWK_FRAMECOUNTER_CHANGES;
   \   000040   90....       MOV       DPTR,#__Constant_3e8
   \   000043   78..         MOV       R0,#?V0
   \   000045   12....       LCALL     ?L_MOV_X
   \   000048   7411         MOV       A,#0x11
   \   00004A   12....       LCALL     ?XSTACK_DISP0_8
   \   00004D   78..         MOV       R0,#?V0
   \   00004F   12....       LCALL     ?L_ADD_TO_X
   1603                nwkFrameCounter = keyItems.frameCounter;
   \   000052   7411         MOV       A,#0x11
   \   000054   12....       LCALL     ?XSTACK_DISP0_8
   \   000057   12....       LCALL     ?XLOAD_R0123
   \   00005A   90....       MOV       DPTR,#nwkFrameCounter
   \   00005D   12....       LCALL     ?XSTORE_R0123
   1604                ret = true;
   \   000060   7E01         MOV       R6,#0x1
   1605              }
   1606          
   1607              // Force a save for the first frame counter increment
   1608              nwkFrameCounterChanges = MAX_NWK_FRAMECOUNTER_CHANGES + 1;
   \                     ??ZDApp_RestoreNwkKey_1:
   \   000062   90....       MOV       DPTR,#nwkFrameCounterChanges
   \   000065   74E9         MOV       A,#-0x17
   \   000067   F0           MOVX      @DPTR,A
   \   000068   A3           INC       DPTR
   \   000069   7403         MOV       A,#0x3
   \   00006B   F0           MOVX      @DPTR,A
   1609            }
   1610            // Clear copy in RAM before return.
   1611            osal_memset( &keyItems, 0x00, sizeof(keyItems) );
   \                     ??ZDApp_RestoreNwkKey_0:
   \   00006C                ; Setup parameters for call to function osal_memset
   \   00006C   7C15         MOV       R4,#0x15
   \   00006E   7D00         MOV       R5,#0x0
   \   000070   7900         MOV       R1,#0x0
   \   000072   AA..         MOV       R2,?XSP + 0
   \   000074   AB..         MOV       R3,?XSP + 1
   \   000076   12....       LCALL     `??osal_memset::?relay`; Banked call to: osal_memset
   1612          
   1613            return ( ret );
   \   000079   EE           MOV       A,R6
   \   00007A   F9           MOV       R1,A
   \   00007B   02....       LJMP      ?Subroutine1 & 0xFFFF
   1614          }
   1615          
   1616          /*********************************************************************
   1617           * @fn      ZDApp_ResetTimerStart
   1618           *
   1619           * @brief   Start the reset timer.
   1620           *
   1621           * @param   delay - delay time(ms) before reset
   1622           *
   1623           * @return  none
   1624           */

   \                                 In  segment BANKED_CODE, align 1, keep-with-next
   1625          void ZDApp_ResetTimerStart( uint16 delay )
   \                     ZDApp_ResetTimerStart:
   1626          {
   \   000000   C082         PUSH      DPL
   \   000002   C083         PUSH      DPH
   \   000004                ; Saved register size: 2
   \   000004                ; Auto size: 0
   1627            // Start the rest timer
   1628            osal_start_timerEx( ZDAppTaskID, ZDO_DEVICE_RESET, delay );
   \   000004                ; Setup parameters for call to function osal_start_timerEx
   \   000004   EA           MOV       A,R2
   \   000005   FC           MOV       R4,A
   \   000006   EB           MOV       A,R3
   \   000007   FD           MOV       R5,A
   \   000008   7A04         MOV       R2,#0x4
   \   00000A   12....       LCALL     ?Subroutine21 & 0xFFFF
   1629          }
   \                     ??CrossCallReturnLabel_81:
   \   00000D   02....       LJMP      ?Subroutine3 & 0xFFFF
   1630          
   1631          /*********************************************************************
   1632           * @fn      ZDApp_ResetTimerCancel
   1633           *
   1634           * @brief   Cancel the reset timer.
   1635           *
   1636           * @param   none
   1637           *
   1638           * @return  none
   1639           */

   \                                 In  segment BANKED_CODE, align 1, keep-with-next
   1640          void ZDApp_ResetTimerCancel( void )
   \                     ZDApp_ResetTimerCancel:
   1641          {
   \   000000   C082         PUSH      DPL
   \   000002   C083         PUSH      DPH
   \   000004                ; Saved register size: 2
   \   000004                ; Auto size: 0
   1642            // Cancel the reset timer
   1643            osal_stop_timerEx( ZDAppTaskID, ZDO_DEVICE_RESET );
   \   000004                ; Setup parameters for call to function osal_stop_timerEx
   \   000004   7A04         MOV       R2,#0x4
   \   000006   7B00         MOV       R3,#0x0
   \   000008   90....       MOV       DPTR,#ZDAppTaskID
   \   00000B   E0           MOVX      A,@DPTR
   \   00000C   F9           MOV       R1,A
   \   00000D   12....       LCALL     `??osal_stop_timerEx::?relay`; Banked call to: osal_stop_timerEx
   1644          }
   \   000010   02....       LJMP      ?Subroutine3 & 0xFFFF
   1645          
   1646          /*********************************************************************
   1647           * @fn      ZDApp_LeaveCtrlInit
   1648           *
   1649           * @brief   Initialize the leave control logic.
   1650           *
   1651           * @param   none
   1652           *
   1653           * @return  none
   1654           */

   \                                 In  segment BANKED_CODE, align 1, keep-with-next
   1655          void ZDApp_LeaveCtrlInit( void )
   \                     ZDApp_LeaveCtrlInit:
   1656          {
   \   000000                REQUIRE ?V0
   \   000000                REQUIRE ?V1
   \   000000   74F6         MOV       A,#-0xa
   \   000002   12....       LCALL     ?BANKED_ENTER_XDATA
   \   000005                ; Saved register size: 10
   \   000005                ; Auto size: 0
   1657            uint8 status;
   1658          
   1659          
   1660            // Initialize control state
   1661            ZDApp_LeaveCtrl = ZDAPP_LEAVE_CTRL_INIT;
   \   000005   90....       MOV       DPTR,#ZDApp_LeaveCtrl
   \   000008   E4           CLR       A
   \   000009   F0           MOVX      @DPTR,A
   1662          
   1663            status = osal_nv_item_init( ZCD_NV_LEAVE_CTRL,
   1664                                        sizeof(ZDApp_LeaveCtrl),
   1665                                        &ZDApp_LeaveCtrl );
   1666          
   1667            if ( status == ZSUCCESS )
   \   00000A                ; Setup parameters for call to function osal_nv_item_init
   \   00000A   75....       MOV       ?V0,#ZDApp_LeaveCtrl & 0xff
   \   00000D   75....       MOV       ?V1,#(ZDApp_LeaveCtrl >> 8) & 0xff
   \   000010   78..         MOV       R0,#?V0
   \   000012   12....       LCALL     ?PUSH_XSTACK_I_TWO
   \   000015   7C01         MOV       R4,#0x1
   \   000017   7D00         MOV       R5,#0x0
   \   000019   7A85         MOV       R2,#-0x7b
   \   00001B   7B00         MOV       R3,#0x0
   \   00001D   12....       LCALL     `??osal_nv_item_init::?relay`; Banked call to: osal_nv_item_init
   \   000020   7402         MOV       A,#0x2
   \   000022   12....       LCALL     ?DEALLOC_XSTACK8
   \   000025   E9           MOV       A,R1
   \   000026   701C         JNZ       ??ZDApp_LeaveCtrlInit_0
   1668            {
   1669              // Read saved control
   1670              osal_nv_read( ZCD_NV_LEAVE_CTRL,
   1671                            0,
   1672                            sizeof( uint8 ),
   1673                            &ZDApp_LeaveCtrl);
   \   000028                ; Setup parameters for call to function osal_nv_read
   \   000028   78..         MOV       R0,#?V0
   \   00002A   12....       LCALL     ?PUSH_XSTACK_I_TWO
   \   00002D   75..01       MOV       ?V0,#0x1
   \   000030   75..00       MOV       ?V1,#0x0
   \   000033   78..         MOV       R0,#?V0
   \   000035   12....       LCALL     ?PUSH_XSTACK_I_TWO
   \   000038   7C00         MOV       R4,#0x0
   \   00003A   7D00         MOV       R5,#0x0
   \   00003C   7A85         MOV       R2,#-0x7b
   \   00003E   12....       LCALL     ?Subroutine28 & 0xFFFF
   1674            }
   \                     ??CrossCallReturnLabel_34:
   \   000041   12....       LCALL     ?DEALLOC_XSTACK8
   1675          }
   \                     ??ZDApp_LeaveCtrlInit_0:
   \   000044   02....       LJMP      ??Subroutine49_0 & 0xFFFF
   1676          
   1677          /*********************************************************************
   1678           * @fn      ZDApp_LeaveCtrlSet
   1679           *
   1680           * @brief   Set the leave control logic.
   1681           *
   1682           * @param   ra - reassociate flag
   1683           *
   1684           * @return  none
   1685           */

   \                                 In  segment BANKED_CODE, align 1, keep-with-next
   \                     ?Subroutine2:
   \   000000   75....       MOV       ?V0,#ZDApp_LeaveCtrl & 0xff
   \   000003   75....       MOV       ?V1,#(ZDApp_LeaveCtrl >> 8) & 0xff
   \   000006   78..         MOV       R0,#?V0
   \   000008   12....       LCALL     ?PUSH_XSTACK_I_TWO
   \   00000B   75..01       MOV       ?V0,#0x1
   \   00000E   75..00       MOV       ?V1,#0x0
   \   000011   78..         MOV       R0,#?V0
   \   000013   12....       LCALL     ?PUSH_XSTACK_I_TWO
   \   000016   7C00         MOV       R4,#0x0
   \   000018   7D00         MOV       R5,#0x0
   \   00001A   7A85         MOV       R2,#-0x7b
   \   00001C   7B00         MOV       R3,#0x0
   \   00001E   12....       LCALL     `??osal_nv_write::?relay`; Banked call to: osal_nv_write
   \   000021   7404         MOV       A,#0x4
   \   000023                REQUIRE ??Subroutine48_0
   \   000023                ; // Fall through to label ??Subroutine48_0

   \                                 In  segment BANKED_CODE, align 1, keep-with-next
   1686          void ZDApp_LeaveCtrlSet( uint8 ra )
   \                     ZDApp_LeaveCtrlSet:
   1687          {
   \   000000                REQUIRE ?V0
   \   000000                REQUIRE ?V1
   \   000000   74F6         MOV       A,#-0xa
   \   000002   12....       LCALL     ?BANKED_ENTER_XDATA
   \   000005                ; Saved register size: 10
   \   000005                ; Auto size: 0
   \   000005   E9           MOV       A,R1
   \   000006   FE           MOV       R6,A
   1688            ZDApp_LeaveCtrl = ZDAPP_LEAVE_CTRL_SET;
   \   000007   90....       MOV       DPTR,#ZDApp_LeaveCtrl
   \   00000A   7401         MOV       A,#0x1
   \   00000C   F0           MOVX      @DPTR,A
   1689          
   1690            if ( ra == TRUE )
   \   00000D   6E           XRL       A,R6
   \   00000E   7003         JNZ       ??ZDApp_LeaveCtrlSet_0
   1691            {
   1692              ZDApp_LeaveCtrl |= ZDAPP_LEAVE_CTRL_RA;
   \   000010   7403         MOV       A,#0x3
   \   000012   F0           MOVX      @DPTR,A
   1693            }
   1694          
   1695            // Write the leave control
   1696            osal_nv_write( ZCD_NV_LEAVE_CTRL,
   1697                           0,
   1698                           sizeof( uint8 ),
   1699                           &ZDApp_LeaveCtrl);
   \                     ??ZDApp_LeaveCtrlSet_0:
   \   000013                ; Setup parameters for call to function osal_nv_write
   \   000013   02....       LJMP      ?Subroutine2 & 0xFFFF
   1700          }
   1701          
   1702          /*********************************************************************
   1703           * @fn      ZDApp_LeaveCtrlReset
   1704           *
   1705           * @brief   Re-initialize the leave control logic.
   1706           *
   1707           * @param   none
   1708           *
   1709           * @return  none
   1710           */

   \                                 In  segment BANKED_CODE, align 1, keep-with-next
   1711          void ZDApp_LeaveCtrlReset( void )
   \                     ZDApp_LeaveCtrlReset:
   1712          {
   \   000000                REQUIRE ?V0
   \   000000                REQUIRE ?V1
   \   000000   74F6         MOV       A,#-0xa
   \   000002   12....       LCALL     ?BANKED_ENTER_XDATA
   \   000005                ; Saved register size: 10
   \   000005                ; Auto size: 0
   1713            // Set leave control to initialized state
   1714            ZDApp_LeaveCtrl = ZDAPP_LEAVE_CTRL_INIT;
   \   000005   90....       MOV       DPTR,#ZDApp_LeaveCtrl
   \   000008   E4           CLR       A
   \   000009   F0           MOVX      @DPTR,A
   1715          
   1716            // Write initialized control
   1717            osal_nv_write( ZCD_NV_LEAVE_CTRL,
   1718                          0,
   1719                          sizeof( uint8 ),
   1720                          &ZDApp_LeaveCtrl);
   \   00000A                ; Setup parameters for call to function osal_nv_write
   \   00000A   02....       LJMP      ?Subroutine2 & 0xFFFF
   1721          }
   1722          
   1723          /*********************************************************************
   1724           * @fn      ZDApp_LeaveCtrlBypass
   1725           *
   1726           * @brief   Check if NV restore should be skipped during a leave reset.
   1727           *
   1728           * @param   none
   1729           *
   1730           * @return  uint8 - (TRUE bypass:FALSE do not bypass)
   1731           */

   \                                 In  segment BANKED_CODE, align 1, keep-with-next
   1732          uint8 ZDApp_LeaveCtrlBypass( void )
   \                     ZDApp_LeaveCtrlBypass:
   1733          {
   \   000000   C082         PUSH      DPL
   \   000002   C083         PUSH      DPH
   \   000004                ; Saved register size: 2
   \   000004                ; Auto size: 0
   1734            uint8 bypass;
   1735          
   1736            if ( ZDApp_LeaveCtrl & ZDAPP_LEAVE_CTRL_SET )
   1737            {
   1738              bypass = TRUE;
   1739            }
   1740            else
   1741            {
   1742              bypass = FALSE;
   1743            }
   1744          
   1745            return bypass;
   \   000004   90....       MOV       DPTR,#ZDApp_LeaveCtrl
   \   000007   E0           MOVX      A,@DPTR
   \   000008   A2E0         MOV       C,0xE0 /* A   */.0
   \   00000A   E4           CLR       A
   \   00000B   33           RLC       A
   \   00000C   F9           MOV       R1,A
   \   00000D   80..         SJMP      ?Subroutine3
   1746          }
   1747          
   1748          /*********************************************************************
   1749           * @fn      ZDApp_LeaveCtrlStartup
   1750           *
   1751           * @brief   Check for startup conditions during a leave reset.
   1752           *
   1753           * @param   state      - devState_t determined by leave control logic
   1754           * @param   startDelay - startup delay
   1755           *
   1756           * @return  none
   1757           */

   \                                 In  segment BANKED_CODE, align 1, keep-with-next
   1758          void ZDApp_LeaveCtrlStartup( devStates_t* state, uint16* startDelay )
   \                     ZDApp_LeaveCtrlStartup:
   1759          {
   \   000000   C082         PUSH      DPL
   \   000002   C083         PUSH      DPH
   \   000004                ; Saved register size: 2
   \   000004                ; Auto size: 0
   1760            *startDelay = 0;
   \   000004   8C82         MOV       DPL,R4
   \   000006   8D83         MOV       DPH,R5
   \   000008   E4           CLR       A
   \   000009   F0           MOVX      @DPTR,A
   \   00000A   A3           INC       DPTR
   \   00000B   F0           MOVX      @DPTR,A
   1761          
   1762            if ( ZDApp_LeaveCtrl & ZDAPP_LEAVE_CTRL_SET )
   \   00000C   90....       MOV       DPTR,#ZDApp_LeaveCtrl
   \   00000F   E0           MOVX      A,@DPTR
   \   000010   A2E0         MOV       C,0xE0 /* A   */.0
   \   000012   5019         JNC       ??ZDApp_LeaveCtrlStartup_0
   1763            {
   1764              if ( ZDApp_LeaveCtrl & ZDAPP_LEAVE_CTRL_RA )
   \   000014   A2E1         MOV       C,0xE0 /* A   */.1
   \   000016   500C         JNC       ??ZDApp_LeaveCtrlStartup_1
   1765              {
   1766                *startDelay = LEAVE_RESET_DELAY;
   \   000018   8C82         MOV       DPL,R4
   \   00001A   8D83         MOV       DPH,R5
   \   00001C   7488         MOV       A,#-0x78
   \   00001E   F0           MOVX      @DPTR,A
   \   00001F   A3           INC       DPTR
   \   000020   7413         MOV       A,#0x13
   \   000022   8005         SJMP      ??ZDApp_LeaveCtrlStartup_2
   1767              }
   1768              else
   1769              {
   1770                *state = DEV_HOLD;
   \                     ??ZDApp_LeaveCtrlStartup_1:
   \   000024   8A82         MOV       DPL,R2
   \   000026   8B83         MOV       DPH,R3
   \   000028   E4           CLR       A
   \                     ??ZDApp_LeaveCtrlStartup_2:
   \   000029   F0           MOVX      @DPTR,A
   1771              }
   1772          
   1773              // Reset leave control logic
   1774              ZDApp_LeaveCtrlReset();
   \   00002A                ; Setup parameters for call to function ZDApp_LeaveCtrlReset
   \   00002A   12....       LCALL     `??ZDApp_LeaveCtrlReset::?relay`; Banked call to: ZDApp_LeaveCtrlReset
   1775            }
   1776          }
   \                     ??ZDApp_LeaveCtrlStartup_0:
   \   00002D                REQUIRE ?Subroutine3
   \   00002D                ; // Fall through to label ?Subroutine3
   1777          
   1778          /*********************************************************************
   1779           * @fn      ZDApp_LeaveReset
   1780           *
   1781           * @brief   Setup a device reset due to a leave indication/confirm.
   1782           *
   1783           * @param   ra - reassociate flag
   1784           *
   1785           * @return  none
   1786           */

   \                                 In  segment BANKED_CODE, align 1, keep-with-next
   1787          void ZDApp_LeaveReset( uint8 ra )
   \                     ZDApp_LeaveReset:
   1788          {
   \   000000   74F7         MOV       A,#-0x9
   \   000002   12....       LCALL     ?BANKED_ENTER_XDATA
   \   000005                ; Saved register size: 9
   \   000005                ; Auto size: 0
   1789            ZDApp_LeaveCtrlSet( ra );
   \   000005                ; Setup parameters for call to function ZDApp_LeaveCtrlSet
   \   000005   12....       LCALL     `??ZDApp_LeaveCtrlSet::?relay`; Banked call to: ZDApp_LeaveCtrlSet
   1790          
   1791            ZDApp_ResetTimerStart( LEAVE_RESET_DELAY );
   \   000008                ; Setup parameters for call to function ZDApp_ResetTimerStart
   \   000008   7A88         MOV       R2,#-0x78
   \   00000A   7B13         MOV       R3,#0x13
   \   00000C   12....       LCALL     `??ZDApp_ResetTimerStart::?relay`; Banked call to: ZDApp_ResetTimerStart
   1792          }
   \   00000F   80..         SJMP      ??Subroutine51_0
   1793          
   1794          /*********************************************************************
   1795           * @fn      ZDApp_LeaveUpdate
   1796           *
   1797           * @brief   Update local device data related to leaving device.
   1798           *
   1799           * @param   nwkAddr        - NWK address of leaving device
   1800           * @param   extAddr        - EXT address of leaving device
   1801           * @param   removeChildren - remove children of leaving device
   1802           *
   1803           * @return  none
   1804           */

   \                                 In  segment BANKED_CODE, align 1, keep-with-next
   1805          void ZDApp_LeaveUpdate( uint16 nwkAddr, uint8* extAddr,
   \                     ZDApp_LeaveUpdate:
   1806                                  uint8 removeChildren )
   1807          {
   \   000000   74F7         MOV       A,#-0x9
   \   000002   12....       LCALL     ?BANKED_ENTER_XDATA
   \   000005                ; Saved register size: 9
   \   000005                ; Auto size: 0
   \   000005   EC           MOV       A,R4
   \   000006   FA           MOV       R2,A
   \   000007   ED           MOV       A,R5
   \   000008   FB           MOV       R3,A
   1808            /*
   1809            AddrMgrEntry_t entry;
   1810            */
   1811            (void)nwkAddr;  // Intentionally unreferenced parameter
   1812          
   1813            // Remove if child
   1814            if ( ZSTACK_ROUTER_BUILD )
   1815            {
   1816              NLME_RemoveChild( extAddr, removeChildren );
   \   000009                ; Setup parameters for call to function NLME_RemoveChild
   \   000009   12....       LCALL     `??NLME_RemoveChild::?relay`; Banked call to: NLME_RemoveChild
   1817            }
   1818          
   1819            /*
   1820            // Set NWK address to invalid
   1821            entry.user    = ADDRMGR_USER_DEFAULT;
   1822            entry.nwkAddr = INVALID_NODE_ADDR;
   1823            AddrMgrExtAddrSet( entry.extAddr, extAddr );
   1824            AddrMgrEntryUpdate( &entry );
   1825          
   1826            // Check
   1827            if ( removeChildren == TRUE )
   1828            {
   1829              // Set index to INVALID_NODE_ADDR to start search
   1830              entry.index = INVALID_NODE_ADDR;
   1831          
   1832              // Get first entry
   1833              AddrMgrEntryGetNext( &entry );
   1834          
   1835              // Remove all descendents
   1836              while ( entry.index != INVALID_NODE_ADDR )
   1837              {
   1838                // Check NWK address allocation algorithm
   1839                if ( RTG_ANCESTOR( entry.nwkAddr, thisAddr ) != 0 )
   1840                {
   1841                  // Set NWK address to invalid
   1842                  entry.nwkAddr = INVALID_NODE_ADDR;
   1843                  AddrMgrEntryUpdate( &entry );
   1844                }
   1845          
   1846                // Get next entry
   1847                AddrMgrEntryGetNext( &entry );
   1848              }
   1849            }
   1850            */
   1851          }
   \   00000C   80..         SJMP      ??Subroutine51_0
   1852          
   1853          /*********************************************************************
   1854           * @fn      ZDApp_NetworkDiscoveryReq
   1855           *
   1856           * @brief   Request a network discovery.
   1857           *
   1858           * @param  scanChannels -
   1859           * @param  scanDuration -
   1860           *
   1861           * @return  ZStatus_t
   1862           */

   \                                 In  segment BANKED_CODE, align 1, keep-with-next
   1863          ZStatus_t ZDApp_NetworkDiscoveryReq( uint32 scanChannels, uint8 scanDuration)
   \                     ZDApp_NetworkDiscoveryReq:
   1864          {
   \   000000                REQUIRE ?V0
   \   000000                REQUIRE ?V1
   \   000000                REQUIRE ?V2
   \   000000                REQUIRE ?V3
   \   000000   74F4         MOV       A,#-0xc
   \   000002   12....       LCALL     ?BANKED_ENTER_XDATA
   \   000005                ; Saved register size: 12
   \   000005                ; Auto size: 0
   1865            // Setup optional filters - tbd
   1866          
   1867            // Request NLME network discovery
   1868            return NLME_NetworkDiscoveryRequest(scanChannels, scanDuration);
   \   000005                ; Setup parameters for call to function NLME_NetworkDiscoveryRequest
   \   000005   12....       LCALL     `??NLME_NetworkDiscoveryRequest::?relay`; Banked call to: NLME_NetworkDiscoveryRequest
   \   000008   02....       LJMP      ??Subroutine44_0 & 0xFFFF
   1869          }
   1870          
   1871          /*********************************************************************
   1872           * @fn      ZDApp_JoinReq
   1873           *
   1874           * @brief   Request the device to join a parent in a network.
   1875           *
   1876           * @param   channel -
   1877           * @param   panID -
   1878           *
   1879           * @return  ZStatus_t
   1880           */

   \                                 In  segment BANKED_CODE, align 1, keep-with-next
   1881          ZStatus_t ZDApp_JoinReq( uint8 channel, uint16 panID, uint8 *extendedPanID,
   \                     ZDApp_JoinReq:
   1882                                   uint16 chosenParent, uint8 parentDepth, uint8 stackProfile )
   1883          {
   \   000000                REQUIRE ?V0
   \   000000                REQUIRE ?V1
   \   000000                REQUIRE ?V2
   \   000000                REQUIRE ?V3
   \   000000   74F4         MOV       A,#-0xc
   \   000002   12....       LCALL     ?BANKED_ENTER_XDATA
   \   000005                ; Saved register size: 12
   \   000005                ; Auto size: 0
   \   000005   89..         MOV       ?V2,R1
   \   000007   EA           MOV       A,R2
   \   000008   FE           MOV       R6,A
   \   000009   EB           MOV       A,R3
   \   00000A   FF           MOV       R7,A
   \   00000B   8C..         MOV       ?V0,R4
   \   00000D   8D..         MOV       ?V1,R5
   1884            // Sync up the node with the stack profile (In the case where a pro device
   1885            // joins a non-pro network, or verse versa)
   1886            ZDApp_NodeProfileSync( stackProfile);
   \   00000F                ; Setup parameters for call to function ZDApp_NodeProfileSync
   \   00000F   740F         MOV       A,#0xf
   \   000011   12....       LCALL     ?XSTACK_DISP0_8
   \   000014   E0           MOVX      A,@DPTR
   \   000015   F9           MOV       R1,A
   \   000016   12....       LCALL     `??ZDApp_NodeProfileSync::?relay`; Banked call to: ZDApp_NodeProfileSync
   1887          
   1888            // Request NLME Join Request
   1889            return NLME_JoinRequest(extendedPanID, panID,channel,
   1890                                    ZDO_Config_Node_Descriptor.CapabilityFlags,
   1891                                    chosenParent, parentDepth);
   \   000019                ; Setup parameters for call to function NLME_JoinRequest
   \   000019   740E         MOV       A,#0xe
   \   00001B   12....       LCALL     ?XSTACK_DISP0_8
   \   00001E   E0           MOVX      A,@DPTR
   \   00001F   F5..         MOV       ?V3,A
   \   000021   78..         MOV       R0,#?V3
   \   000023   12....       LCALL     ?PUSH_XSTACK_I_ONE
   \   000026   740D         MOV       A,#0xd
   \   000028   12....       LCALL     ?XSTACK_DISP0_8
   \   00002B   12....       LCALL     ?PUSH_XSTACK8_X_TWO
   \   00002E   90....       MOV       DPTR,#ZDO_Config_Node_Descriptor + 2
   \   000031   E0           MOVX      A,@DPTR
   \   000032   F5..         MOV       ?V3,A
   \   000034   78..         MOV       R0,#?V3
   \   000036   12....       LCALL     ?PUSH_XSTACK_I_ONE
   \   000039   A9..         MOV       R1,?V2
   \   00003B   EE           MOV       A,R6
   \   00003C   FC           MOV       R4,A
   \   00003D   EF           MOV       A,R7
   \   00003E   FD           MOV       R5,A
   \   00003F   AA..         MOV       R2,?V0
   \   000041   AB..         MOV       R3,?V1
   \   000043   12....       LCALL     `??NLME_JoinRequest::?relay`; Banked call to: NLME_JoinRequest
   \   000046   7404         MOV       A,#0x4
   \   000048   02....       LJMP      ??Subroutine43_0 & 0xFFFF
   1892          
   1893          }
   1894          
   1895          /*********************************************************************
   1896           * @fn      ZDApp_DeviceConfigured
   1897           *
   1898           * @brief   Check to see if the local device is configured (i.e., part
   1899           *          of a network).
   1900           *
   1901           * @param   none
   1902           *
   1903           * @return  TRUE if configured. FALSE, otherwise.
   1904           */

   \                                 In  segment BANKED_CODE, align 1, keep-with-next
   1905          uint8 ZDApp_DeviceConfigured( void )
   \                     ZDApp_DeviceConfigured:
   1906          {
   \   000000                REQUIRE ?V0
   \   000000                REQUIRE ?V1
   \   000000   74F6         MOV       A,#-0xa
   \   000002   12....       LCALL     ?BANKED_ENTER_XDATA
   \   000005                ; Saved register size: 10
   \   000005                ; Auto size: 2
   \   000005   74FE         MOV       A,#-0x2
   \   000007   12....       LCALL     ?ALLOC_XSTACK8
   1907            uint16 nwkAddr = INVALID_NODE_ADDR;
   \   00000A   85..82       MOV       DPL,?XSP + 0
   \   00000D   85..83       MOV       DPH,?XSP + 1
   \   000010   74FE         MOV       A,#-0x2
   \   000012   F0           MOVX      @DPTR,A
   \   000013   A3           INC       DPTR
   \   000014   04           INC       A
   \   000015   F0           MOVX      @DPTR,A
